{
  "address": "0x4556Af507375912d77c151a75f47640B1De4B468",
  "abi": [
    {
      "inputs": [
        {
          "internalType": "contract IBancorNetwork",
          "name": "initNetwork",
          "type": "address"
        },
        {
          "internalType": "contract IMasterVault",
          "name": "initMasterVault",
          "type": "address"
        }
      ],
      "stateMutability": "nonpayable",
      "type": "constructor"
    },
    {
      "inputs": [],
      "name": "AccessDenied",
      "type": "error"
    },
    {
      "inputs": [],
      "name": "AlreadyInitialized",
      "type": "error"
    },
    {
      "inputs": [],
      "name": "IdenticalAddresses",
      "type": "error"
    },
    {
      "inputs": [],
      "name": "InvalidAddress",
      "type": "error"
    },
    {
      "inputs": [],
      "name": "InvalidFee",
      "type": "error"
    },
    {
      "inputs": [],
      "name": "NativeTokenAmountMismatch",
      "type": "error"
    },
    {
      "inputs": [],
      "name": "Overflow",
      "type": "error"
    },
    {
      "inputs": [],
      "name": "PoolAlreadyExists",
      "type": "error"
    },
    {
      "inputs": [],
      "name": "PoolDoesNotExists",
      "type": "error"
    },
    {
      "anonymous": false,
      "inputs": [
        {
          "indexed": false,
          "internalType": "uint8",
          "name": "version",
          "type": "uint8"
        }
      ],
      "name": "Initialized",
      "type": "event"
    },
    {
      "anonymous": false,
      "inputs": [
        {
          "indexed": false,
          "internalType": "uint32",
          "name": "prevFeePPM",
          "type": "uint32"
        },
        {
          "indexed": false,
          "internalType": "uint32",
          "name": "newFeePPM",
          "type": "uint32"
        }
      ],
      "name": "NetworkFeePPMUpdated",
      "type": "event"
    },
    {
      "anonymous": false,
      "inputs": [
        {
          "indexed": false,
          "internalType": "address",
          "name": "account",
          "type": "address"
        }
      ],
      "name": "Paused",
      "type": "event"
    },
    {
      "anonymous": false,
      "inputs": [
        {
          "indexed": true,
          "internalType": "uint256",
          "name": "poolId",
          "type": "uint256"
        },
        {
          "indexed": true,
          "internalType": "contract Token",
          "name": "token0",
          "type": "address"
        },
        {
          "indexed": true,
          "internalType": "contract Token",
          "name": "token1",
          "type": "address"
        }
      ],
      "name": "PoolCreated",
      "type": "event"
    },
    {
      "anonymous": false,
      "inputs": [
        {
          "indexed": true,
          "internalType": "bytes32",
          "name": "role",
          "type": "bytes32"
        },
        {
          "indexed": true,
          "internalType": "bytes32",
          "name": "previousAdminRole",
          "type": "bytes32"
        },
        {
          "indexed": true,
          "internalType": "bytes32",
          "name": "newAdminRole",
          "type": "bytes32"
        }
      ],
      "name": "RoleAdminChanged",
      "type": "event"
    },
    {
      "anonymous": false,
      "inputs": [
        {
          "indexed": true,
          "internalType": "bytes32",
          "name": "role",
          "type": "bytes32"
        },
        {
          "indexed": true,
          "internalType": "address",
          "name": "account",
          "type": "address"
        },
        {
          "indexed": true,
          "internalType": "address",
          "name": "sender",
          "type": "address"
        }
      ],
      "name": "RoleGranted",
      "type": "event"
    },
    {
      "anonymous": false,
      "inputs": [
        {
          "indexed": true,
          "internalType": "bytes32",
          "name": "role",
          "type": "bytes32"
        },
        {
          "indexed": true,
          "internalType": "address",
          "name": "account",
          "type": "address"
        },
        {
          "indexed": true,
          "internalType": "address",
          "name": "sender",
          "type": "address"
        }
      ],
      "name": "RoleRevoked",
      "type": "event"
    },
    {
      "anonymous": false,
      "inputs": [
        {
          "indexed": false,
          "internalType": "uint256",
          "name": "id",
          "type": "uint256"
        },
        {
          "indexed": true,
          "internalType": "address",
          "name": "provider",
          "type": "address"
        },
        {
          "indexed": true,
          "internalType": "contract Token",
          "name": "sourceToken",
          "type": "address"
        },
        {
          "indexed": true,
          "internalType": "contract Token",
          "name": "targetToken",
          "type": "address"
        },
        {
          "indexed": false,
          "internalType": "uint128",
          "name": "y0",
          "type": "uint128"
        },
        {
          "indexed": false,
          "internalType": "uint128",
          "name": "z0",
          "type": "uint128"
        },
        {
          "indexed": false,
          "internalType": "uint64",
          "name": "A0",
          "type": "uint64"
        },
        {
          "indexed": false,
          "internalType": "uint64",
          "name": "B0",
          "type": "uint64"
        },
        {
          "indexed": false,
          "internalType": "uint128",
          "name": "y1",
          "type": "uint128"
        },
        {
          "indexed": false,
          "internalType": "uint128",
          "name": "z1",
          "type": "uint128"
        },
        {
          "indexed": false,
          "internalType": "uint64",
          "name": "A1",
          "type": "uint64"
        },
        {
          "indexed": false,
          "internalType": "uint64",
          "name": "B1",
          "type": "uint64"
        }
      ],
      "name": "StrategyCreated",
      "type": "event"
    },
    {
      "anonymous": false,
      "inputs": [
        {
          "indexed": false,
          "internalType": "address",
          "name": "account",
          "type": "address"
        }
      ],
      "name": "Unpaused",
      "type": "event"
    },
    {
      "inputs": [],
      "name": "DEFAULT_ADMIN_ROLE",
      "outputs": [
        {
          "internalType": "bytes32",
          "name": "",
          "type": "bytes32"
        }
      ],
      "stateMutability": "view",
      "type": "function"
    },
    {
      "inputs": [
        {
          "internalType": "contract Token",
          "name": "token0",
          "type": "address"
        },
        {
          "internalType": "contract Token",
          "name": "token1",
          "type": "address"
        }
      ],
      "name": "createPool",
      "outputs": [
        {
          "components": [
            {
              "internalType": "uint256",
              "name": "id",
              "type": "uint256"
            },
            {
              "internalType": "contract Token",
              "name": "token0",
              "type": "address"
            },
            {
              "internalType": "contract Token",
              "name": "token1",
              "type": "address"
            }
          ],
          "internalType": "struct Pool",
          "name": "",
          "type": "tuple"
        }
      ],
      "stateMutability": "nonpayable",
      "type": "function"
    },
    {
      "inputs": [
        {
          "internalType": "contract Token",
          "name": "sourceToken",
          "type": "address"
        },
        {
          "internalType": "contract Token",
          "name": "targetToken",
          "type": "address"
        },
        {
          "internalType": "uint128",
          "name": "y0",
          "type": "uint128"
        },
        {
          "internalType": "uint128",
          "name": "z0",
          "type": "uint128"
        },
        {
          "internalType": "uint64",
          "name": "A0",
          "type": "uint64"
        },
        {
          "internalType": "uint64",
          "name": "B0",
          "type": "uint64"
        },
        {
          "internalType": "uint128",
          "name": "y1",
          "type": "uint128"
        },
        {
          "internalType": "uint128",
          "name": "z1",
          "type": "uint128"
        },
        {
          "internalType": "uint64",
          "name": "A1",
          "type": "uint64"
        },
        {
          "internalType": "uint64",
          "name": "B1",
          "type": "uint64"
        }
      ],
      "name": "createStrategy",
      "outputs": [
        {
          "internalType": "uint256",
          "name": "",
          "type": "uint256"
        }
      ],
      "stateMutability": "nonpayable",
      "type": "function"
    },
    {
      "inputs": [
        {
          "internalType": "bytes32",
          "name": "role",
          "type": "bytes32"
        }
      ],
      "name": "getRoleAdmin",
      "outputs": [
        {
          "internalType": "bytes32",
          "name": "",
          "type": "bytes32"
        }
      ],
      "stateMutability": "view",
      "type": "function"
    },
    {
      "inputs": [
        {
          "internalType": "bytes32",
          "name": "role",
          "type": "bytes32"
        },
        {
          "internalType": "uint256",
          "name": "index",
          "type": "uint256"
        }
      ],
      "name": "getRoleMember",
      "outputs": [
        {
          "internalType": "address",
          "name": "",
          "type": "address"
        }
      ],
      "stateMutability": "view",
      "type": "function"
    },
    {
      "inputs": [
        {
          "internalType": "bytes32",
          "name": "role",
          "type": "bytes32"
        }
      ],
      "name": "getRoleMemberCount",
      "outputs": [
        {
          "internalType": "uint256",
          "name": "",
          "type": "uint256"
        }
      ],
      "stateMutability": "view",
      "type": "function"
    },
    {
      "inputs": [
        {
          "internalType": "bytes32",
          "name": "role",
          "type": "bytes32"
        },
        {
          "internalType": "address",
          "name": "account",
          "type": "address"
        }
      ],
      "name": "grantRole",
      "outputs": [],
      "stateMutability": "nonpayable",
      "type": "function"
    },
    {
      "inputs": [
        {
          "internalType": "bytes32",
          "name": "role",
          "type": "bytes32"
        },
        {
          "internalType": "address",
          "name": "account",
          "type": "address"
        }
      ],
      "name": "hasRole",
      "outputs": [
        {
          "internalType": "bool",
          "name": "",
          "type": "bool"
        }
      ],
      "stateMutability": "view",
      "type": "function"
    },
    {
      "inputs": [],
      "name": "initialize",
      "outputs": [],
      "stateMutability": "nonpayable",
      "type": "function"
    },
    {
      "inputs": [],
      "name": "networkFeePPM",
      "outputs": [
        {
          "internalType": "uint32",
          "name": "",
          "type": "uint32"
        }
      ],
      "stateMutability": "view",
      "type": "function"
    },
    {
      "inputs": [],
      "name": "pairs",
      "outputs": [
        {
          "internalType": "address[2][]",
          "name": "",
          "type": "address[2][]"
        }
      ],
      "stateMutability": "view",
      "type": "function"
    },
    {
      "inputs": [],
      "name": "paused",
      "outputs": [
        {
          "internalType": "bool",
          "name": "",
          "type": "bool"
        }
      ],
      "stateMutability": "view",
      "type": "function"
    },
    {
      "inputs": [
        {
          "internalType": "contract Token",
          "name": "token0",
          "type": "address"
        },
        {
          "internalType": "contract Token",
          "name": "token1",
          "type": "address"
        }
      ],
      "name": "pool",
      "outputs": [
        {
          "components": [
            {
              "internalType": "uint256",
              "name": "id",
              "type": "uint256"
            },
            {
              "internalType": "contract Token",
              "name": "token0",
              "type": "address"
            },
            {
              "internalType": "contract Token",
              "name": "token1",
              "type": "address"
            }
          ],
          "internalType": "struct Pool",
          "name": "",
          "type": "tuple"
        }
      ],
      "stateMutability": "view",
      "type": "function"
    },
    {
      "inputs": [],
      "name": "poolType",
      "outputs": [
        {
          "internalType": "uint16",
          "name": "",
          "type": "uint16"
        }
      ],
      "stateMutability": "view",
      "type": "function"
    },
    {
      "inputs": [
        {
          "internalType": "bytes",
          "name": "data",
          "type": "bytes"
        }
      ],
      "name": "postUpgrade",
      "outputs": [],
      "stateMutability": "nonpayable",
      "type": "function"
    },
    {
      "inputs": [
        {
          "internalType": "bytes32",
          "name": "role",
          "type": "bytes32"
        },
        {
          "internalType": "address",
          "name": "account",
          "type": "address"
        }
      ],
      "name": "renounceRole",
      "outputs": [],
      "stateMutability": "nonpayable",
      "type": "function"
    },
    {
      "inputs": [
        {
          "internalType": "bytes32",
          "name": "role",
          "type": "bytes32"
        },
        {
          "internalType": "address",
          "name": "account",
          "type": "address"
        }
      ],
      "name": "revokeRole",
      "outputs": [],
      "stateMutability": "nonpayable",
      "type": "function"
    },
    {
      "inputs": [],
      "name": "roleAdmin",
      "outputs": [
        {
          "internalType": "bytes32",
          "name": "",
          "type": "bytes32"
        }
      ],
      "stateMutability": "pure",
      "type": "function"
    },
    {
      "inputs": [
        {
          "internalType": "uint32",
          "name": "newNetworkFeePPM",
          "type": "uint32"
        }
      ],
      "name": "setNetworkFeePPM",
      "outputs": [],
      "stateMutability": "nonpayable",
      "type": "function"
    },
    {
      "inputs": [
        {
          "internalType": "uint256[]",
          "name": "ids",
          "type": "uint256[]"
        }
      ],
      "name": "strategiesByIds",
      "outputs": [
        {
          "components": [
            {
              "internalType": "uint256",
              "name": "id",
              "type": "uint256"
            },
            {
              "internalType": "address",
              "name": "provider",
              "type": "address"
            },
            {
              "components": [
                {
                  "internalType": "contract Token",
                  "name": "source",
                  "type": "address"
                },
                {
                  "internalType": "contract Token",
                  "name": "target",
                  "type": "address"
                }
              ],
              "internalType": "struct SourceTargetTokens",
              "name": "tokens",
              "type": "tuple"
            },
            {
              "components": [
                {
                  "internalType": "uint128",
                  "name": "y",
                  "type": "uint128"
                },
                {
                  "internalType": "uint128",
                  "name": "z",
                  "type": "uint128"
                },
                {
                  "internalType": "uint64",
                  "name": "A",
                  "type": "uint64"
                },
                {
                  "internalType": "uint64",
                  "name": "B",
                  "type": "uint64"
                }
              ],
              "internalType": "struct Order[2]",
              "name": "orders",
              "type": "tuple[2]"
            }
          ],
          "internalType": "struct Strategy[]",
          "name": "",
          "type": "tuple[]"
        }
      ],
      "stateMutability": "view",
      "type": "function"
    },
    {
      "inputs": [
        {
          "internalType": "contract Token",
          "name": "sourceToken",
          "type": "address"
        },
        {
          "internalType": "contract Token",
          "name": "targetToken",
          "type": "address"
        }
      ],
      "name": "strategiesByPool",
      "outputs": [
        {
          "components": [
            {
              "internalType": "uint256",
              "name": "id",
              "type": "uint256"
            },
            {
              "internalType": "address",
              "name": "provider",
              "type": "address"
            },
            {
              "components": [
                {
                  "internalType": "contract Token",
                  "name": "source",
                  "type": "address"
                },
                {
                  "internalType": "contract Token",
                  "name": "target",
                  "type": "address"
                }
              ],
              "internalType": "struct SourceTargetTokens",
              "name": "tokens",
              "type": "tuple"
            },
            {
              "components": [
                {
                  "internalType": "uint128",
                  "name": "y",
                  "type": "uint128"
                },
                {
                  "internalType": "uint128",
                  "name": "z",
                  "type": "uint128"
                },
                {
                  "internalType": "uint64",
                  "name": "A",
                  "type": "uint64"
                },
                {
                  "internalType": "uint64",
                  "name": "B",
                  "type": "uint64"
                }
              ],
              "internalType": "struct Order[2]",
              "name": "orders",
              "type": "tuple[2]"
            }
          ],
          "internalType": "struct Strategy[]",
          "name": "",
          "type": "tuple[]"
        }
      ],
      "stateMutability": "view",
      "type": "function"
    },
    {
      "inputs": [
        {
          "internalType": "address",
          "name": "provider",
          "type": "address"
        }
      ],
      "name": "strategiesByProvider",
      "outputs": [
        {
          "components": [
            {
              "internalType": "uint256",
              "name": "id",
              "type": "uint256"
            },
            {
              "internalType": "address",
              "name": "provider",
              "type": "address"
            },
            {
              "components": [
                {
                  "internalType": "contract Token",
                  "name": "source",
                  "type": "address"
                },
                {
                  "internalType": "contract Token",
                  "name": "target",
                  "type": "address"
                }
              ],
              "internalType": "struct SourceTargetTokens",
              "name": "tokens",
              "type": "tuple"
            },
            {
              "components": [
                {
                  "internalType": "uint128",
                  "name": "y",
                  "type": "uint128"
                },
                {
                  "internalType": "uint128",
                  "name": "z",
                  "type": "uint128"
                },
                {
                  "internalType": "uint64",
                  "name": "A",
                  "type": "uint64"
                },
                {
                  "internalType": "uint64",
                  "name": "B",
                  "type": "uint64"
                }
              ],
              "internalType": "struct Order[2]",
              "name": "orders",
              "type": "tuple[2]"
            }
          ],
          "internalType": "struct Strategy[]",
          "name": "",
          "type": "tuple[]"
        }
      ],
      "stateMutability": "view",
      "type": "function"
    },
    {
      "inputs": [
        {
          "internalType": "uint256",
          "name": "id",
          "type": "uint256"
        }
      ],
      "name": "strategy",
      "outputs": [
        {
          "components": [
            {
              "internalType": "uint256",
              "name": "id",
              "type": "uint256"
            },
            {
              "internalType": "address",
              "name": "provider",
              "type": "address"
            },
            {
              "components": [
                {
                  "internalType": "contract Token",
                  "name": "source",
                  "type": "address"
                },
                {
                  "internalType": "contract Token",
                  "name": "target",
                  "type": "address"
                }
              ],
              "internalType": "struct SourceTargetTokens",
              "name": "tokens",
              "type": "tuple"
            },
            {
              "components": [
                {
                  "internalType": "uint128",
                  "name": "y",
                  "type": "uint128"
                },
                {
                  "internalType": "uint128",
                  "name": "z",
                  "type": "uint128"
                },
                {
                  "internalType": "uint64",
                  "name": "A",
                  "type": "uint64"
                },
                {
                  "internalType": "uint64",
                  "name": "B",
                  "type": "uint64"
                }
              ],
              "internalType": "struct Order[2]",
              "name": "orders",
              "type": "tuple[2]"
            }
          ],
          "internalType": "struct Strategy",
          "name": "",
          "type": "tuple"
        }
      ],
      "stateMutability": "view",
      "type": "function"
    },
    {
      "inputs": [
        {
          "internalType": "bytes4",
          "name": "interfaceId",
          "type": "bytes4"
        }
      ],
      "name": "supportsInterface",
      "outputs": [
        {
          "internalType": "bool",
          "name": "",
          "type": "bool"
        }
      ],
      "stateMutability": "view",
      "type": "function"
    },
    {
      "inputs": [
        {
          "internalType": "address",
          "name": "provider",
          "type": "address"
        },
        {
          "components": [
            {
              "internalType": "uint256",
              "name": "strategyId",
              "type": "uint256"
            },
            {
              "internalType": "uint128",
              "name": "tokenAmount",
              "type": "uint128"
            }
          ],
          "internalType": "struct Trade[]",
          "name": "trades",
          "type": "tuple[]"
        },
        {
          "internalType": "bool",
          "name": "tradeByTargetAmount",
          "type": "bool"
        }
      ],
      "name": "trade",
      "outputs": [],
      "stateMutability": "nonpayable",
      "type": "function"
    },
    {
      "inputs": [],
      "name": "version",
      "outputs": [
        {
          "internalType": "uint16",
          "name": "",
          "type": "uint16"
        }
      ],
      "stateMutability": "pure",
      "type": "function"
    }
  ],
  "transactionHash": "0x9281347ac767502369b6a1ab508988fecd7ba98a578c05e5dcc9f9c0dbacf8e1",
  "args": [
    "0xD8A1C1CF34aD2a85a74E682a4501Bb0924176f28",
    "0xeaD5cc8682d9204405C6403187b3A6AcA46d347a"
  ],
  "numDeployments": 1,
  "solcInputHash": "bd7d0ea589ad39020965648b27d58e43",
  "bytecode": "0x60c06040523480156200001157600080fd5b5060405162003541380380620035418339810160408190526200003491620000a3565b6200003f8262000062565b6200004a8162000062565b6001600160a01b039182166080521660a052620000e2565b6001600160a01b0381166200008a5760405163e6c4247b60e01b815260040160405180910390fd5b50565b6001600160a01b03811681146200008a57600080fd5b60008060408385031215620000b757600080fd5b8251620000c4816200008d565b6020840151909250620000d7816200008d565b809150509250929050565b60805160a0516134246200011d6000396000818161084301526108ec015260008181610963015281816109f80152610a3801526134246000f3fe608060405234801561001057600080fd5b506004361061018e5760003560e01c806393867fb5116100de578063bc88d7e411610097578063d09141c211610071578063d09141c2146103a2578063d547741f146103b5578063e3433615146103c8578063ffb0a4a0146103db57600080fd5b8063bc88d7e414610329578063ca15c87314610349578063cb7aae971461035c57600080fd5b806393867fb5146102d45780639a06be92146102e8578063a217fddf146102fb578063a42f094714610303578063b1dd61b614610227578063b98d5d6d1461031657600080fd5b80635c975abb1161014b5780638129fc1c116101255780638129fc1c1461027b5780638cd2403d146102835780639010d07c1461029657806391d14854146102c157600080fd5b80635c975abb146102365780636161b626146102425780636ec9eae51461025b57600080fd5b806301ffc9a714610193578063248a9ca3146101bb5780632f2ff15d146101ec5780633376af511461020157806336568abe1461021457806354fd4d5014610227575b600080fd5b6101a66101a1366004612bed565b6103f0565b60405190151581526020015b60405180910390f35b6101de6101c9366004612c17565b6000908152606c602052604090206001015490565b6040519081526020016101b2565b6101ff6101fa366004612c45565b61041b565b005b6101ff61020f366004612c75565b610445565b6101ff610222366004612c45565b610474565b604051600181526020016101b2565b6101345460ff166101a6565b6101665460405163ffffffff90911681526020016101b2565b61026e610269366004612c9b565b6104f3565b6040516101b29190612da2565b6101ff610506565b6101ff610291366004612df1565b610617565b6102a96102a4366004612e50565b610668565b6040516001600160a01b0390911681526020016101b2565b6101a66102cf366004612c45565b610680565b6000805160206133f88339815191526101de565b61026e6102f6366004612e72565b6106ab565b6101de600081565b6101de610311366004612ed3565b6106d6565b6101ff610324366004612f9f565b610882565b61033c610337366004612c17565b61091c565b6040516101b29190613039565b6101de610357366004612c17565b61092d565b61036f61036a366004612e72565b610944565b60408051825181526020808401516001600160a01b039081169183019190915292820151909216908201526060016101b2565b61026e6103b0366004613048565b61099f565b6101ff6103c3366004612c45565b6109b4565b61036f6103d6366004612e72565b6109d9565b6103e3610a34565b6040516101b29190613065565b60006001600160e01b03198216635a05180f60e01b1480610415575061041582610a6f565b92915050565b6000828152606c602052604090206001015461043681610aa4565b6104408383610aae565b505050565b61045d6000805160206133f883398151915233610ad0565b8061046781610af7565b61047082610b21565b5050565b6001600160a01b03811633146104e95760405162461bcd60e51b815260206004820152602f60248201527f416363657373436f6e74726f6c3a2063616e206f6e6c792072656e6f756e636560448201526e103937b632b9903337b91039b2b63360891b60648201526084015b60405180910390fd5b6104708282610b94565b60606104ff8383610bb6565b9392505050565b600054610100900460ff16158080156105265750600054600160ff909116105b806105405750303b158015610540575060005460ff166001145b6105a35760405162461bcd60e51b815260206004820152602e60248201527f496e697469616c697a61626c653a20636f6e747261637420697320616c72656160448201526d191e481a5b9a5d1a585b1a5e995960921b60648201526084016104e0565b6000805460ff1916600117905580156105c6576000805461ff0019166101001790555b6105ce610c74565b8015610614576000805461ff0019169055604051600181527f7f26b83ff96e1f2b6a682f133852f6798a09c465da95921460cefb38474024989060200160405180910390a15b50565b60d05460009061062c9061ffff1660016130ed565b905061ffff81166001146106525760405162dc149f60e41b815260040160405180910390fd5b60d0805461ffff191661ffff8316179055505050565b6000828152609e602052604081206104ff9083610cbd565b6000918252606c602090815260408084206001600160a01b0393909316845291905290205460ff1690565b60606106b78383610cc9565b60006106c38484610d0d565b90506106ce81610d8f565b949350505050565b60006002610102540361072b5760405162461bcd60e51b815260206004820152601f60248201527f5265656e7472616e637947756172643a207265656e7472616e742063616c6c0060448201526064016104e0565b600261010255610739610e50565b6107438b8b610cc9565b604080518082019091526001600160a01b03808d16808352908c166020830181905261076f9190610e97565b6107875761078581600001518260200151610ed6565b505b600061079b82600001518360200151610d0d565b90506000604051806040016040528060405180608001604052808f6001600160801b031681526020018e6001600160801b031681526020018d6001600160401b031681526020018c6001600160401b0316815250815260200160405180608001604052808b6001600160801b031681526020018a6001600160801b03168152602001896001600160401b03168152602001886001600160401b0316815250815250905061086a7f0000000000000000000000000000000000000000000000000000000000000000848385611105565b6001610102559e9d5050505050505050505050505050565b600261010254036108d55760405162461bcd60e51b815260206004820152601f60248201527f5265656e7472616e637947756172643a207265656e7472616e742063616c6c0060448201526064016104e0565b6002610102556108e3610e50565b610910848484847f000000000000000000000000000000000000000000000000000000000000000061130c565b50506001610102555050565b610924612add565b61041582611638565b6000818152609e602052604081206104159061171c565b60408051606081018252600080825260208201819052918101919091527f000000000000000000000000000000000000000000000000000000000000000061098b81611726565b6109958484610cc9565b6106ce8484610d0d565b6060816109ab8161174f565b6104ff83611776565b6000828152606c60205260409020600101546109cf81610aa4565b6104408383610b94565b60408051606081018252600080825260208201819052918101919091527f0000000000000000000000000000000000000000000000000000000000000000610a2081611726565b610a2a8484610cc9565b6106ce8484610ed6565b60607f0000000000000000000000000000000000000000000000000000000000000000610a6081611726565b610a6861183a565b91505b5090565b60006001600160e01b03198216637965db0b60e01b148061041557506301ffc9a760e01b6001600160e01b0319831614610415565b6106148133611955565b610ab882826119b9565b6000828152609e602052604090206104409082611a3f565b610ada8282610680565b61047057604051634ca8886760e01b815260040160405180910390fd5b620f424063ffffffff82161115610614576040516358d620b360e01b815260040160405180910390fd5b6101665463ffffffff9081169082168103610b3a575050565b610166805463ffffffff191663ffffffff84811691821790925560408051928416835260208301919091527f1f1f36475e04b1709caf649fc7f00350aa38c7f7f110f653e81f79011db0867c910160405180910390a15050565b610b9e8282611a54565b6000828152609e602052604090206104409082611abb565b6060816000816001600160401b03811115610bd357610bd3613113565b604051908082528060200260200182016040528015610c0c57816020015b610bf9612add565b815260200190600190039081610bf15790505b50905060005b82811015610c6b57610c3b868683818110610c2f57610c2f613129565b90506020020135611638565b828281518110610c4d57610c4d613129565b60200260200101819052508080610c639061313f565b915050610c12565b50949350505050565b600054610100900460ff16610c9b5760405162461bcd60e51b81526004016104e090613158565b610ca3611ad0565b610cab611b07565b610cb3611b36565b610cbb611b65565b565b60006104ff8383611b98565b610cd28261174f565b610cdb8161174f565b806001600160a01b0316826001600160a01b03160361047057604051630bd969eb60e41b815260040160405180910390fd5b6040805160608101825260008082526020820181905291810191909152610d348383611bc2565b506001600160a01b039182166000908152603460209081526040808320938516835292815282822054825260358152908290208251606081018452815481526001820154851692810192909252600201549092169082015290565b80516000908152603960205260408120606091610dab8261171c565b90506000816001600160401b03811115610dc757610dc7613113565b604051908082528060200260200182016040528015610e0057816020015b610ded612add565b815260200190600190039081610de55790505b50905060005b82811015610c6b57610e20610e1b8583610cbd565b611638565b828281518110610e3257610e32613129565b60200260200101819052508080610e489061313f565b915050610e06565b6101345460ff1615610cbb5760405162461bcd60e51b815260206004820152601060248201526f14185d5cd8589b194e881c185d5cd95960821b60448201526064016104e0565b6001600160a01b0380831660009081526034602090815260408083209385168352929052908120548103610ecd57506000610415565b50600192915050565b6040805160608101825260008082526020820181905291810191909152610efd8383610e97565b15610f1b57604051630188c99160e11b815260040160405180910390fd5b600080836001600160a01b0316856001600160a01b031610610f3e578385610f41565b84845b91509150610f53603380546001019055565b6000610f5e60335490565b905060006040518060600160405280838152602001856001600160a01b03168152602001846001600160a01b0316815250905080603560008481526020019081526020016000206000820151816000015560208201518160010160006101000a8154816001600160a01b0302191690836001600160a01b0316021790555060408201518160020160006101000a8154816001600160a01b0302191690836001600160a01b03160217905550905050806000015160346000896001600160a01b03166001600160a01b031681526020019081526020016000206000886001600160a01b03166001600160a01b0316815260200190815260200160002081905550806000015160346000886001600160a01b03166001600160a01b031681526020019081526020016000206000896001600160a01b03166001600160a01b031681526020019081526020016000208190555080604001516001600160a01b031681602001516001600160a01b031682600001517f1a7a1d16c3ec9167827a7be3534be26288720a0bdd3de56d290f415db3d3e0a660405160405180910390a49695505050505050565b82516000906111289086903386855b6020020151516001600160801b0316611be9565b602084015161113c90869033866001611114565b61114a603680546001019055565b600061115560365490565b3360009081526038602052604090209091506111719082611ca5565b508251600090815260396020526040902061118c9082611ca5565b506040518060800160405280828152602001336001600160a01b031681526020018681526020016111bc86611cb1565b905260008281526037602090815260409182902083518155838201516001820180546001600160a01b03199081166001600160a01b0393841617909155938501518051600284018054871691841691909117905590920151600380830180549095169190931617909255606083015161123a91600484019190612b1c565b505050602085810151865186518051818501516040808401516060948501518c8901518051818b0151828601519289015186518e81526001600160801b03998a169d81019d909d52968816958c01959095526001600160401b03938416978b019790975290821660808a015294841660a0890152921660c087015291811660e0860152166101008401526001600160a01b039182169291169033907f15fce3d8a9bae4ccfc8c8ed5fcdb369e9036974d5ee20903d71a84b83b909cb2906101200160405180910390a495945050505050565b60008060005b858110156115af5760006037600089898581811061133257611332613129565b604090810292909201358352506020820192909252810160009081208251606081019093526004019250908260038282826020028201915b81548152602001906001019080831161136a5750505050509050600061138f82611d5a565b80516020820151919250906000808b15611412576113df8e8e8a8181106113b8576113b8613129565b90506040020160200160208101906113d091906131a3565b6001600160801b031684611ded565b91508d8d898181106113f3576113f3613129565b905060400201602001602081019061140b91906131a3565b905061147d565b8d8d8981811061142457611424613129565b905060400201602001602081019061143c91906131a3565b915061147a8e8e8a81811061145357611453613129565b905060400201602001602081019061146b91906131a3565b6001600160801b031684611f04565b90505b808360000181815161148f91906131be565b6001600160801b03169052508351829085906114ac9083906131e6565b6001600160801b03908116909152855160208701519082169116101590506114df5783516001600160801b031660208501525b60006114ea86611cb1565b905060005b60038110156115695781816003811061150a5761150a613129565b602002015188826003811061152157611521613129565b6020020151146115575781816003811061153d5761153d613129565b602002015189826003811061155457611554613129565b01555b806115618161313f565b9150506114ef565b5061157d6001600160801b0384168c613208565b9a506115926001600160801b0383168b613208565b9950505050505050505080806115a79061313f565b915050611312565b5060006115d7878760008181106115c8576115c8613129565b90506040020160000135611638565b905060006115fa88886115eb600182613220565b8181106115c8576115c8613129565b9050611610858360400151600001518b87611be9565b60408101516020015161162d906001600160a01b03168a85611fba565b505050505050505050565b611640612add565b600082815260376020908152604080832081516080810183528154815260018201546001600160a01b039081168286015283518085018552600284015482168152600380850154909216958101959095528184019490945282516060808201948590529194929391850192909160048501919082845b8154815260200190600101908083116116b657505050505081525050905060405180608001604052808260000151815260200182602001516001600160a01b03168152602001826040015181526020016117138360600151611d5a565b90529392505050565b6000610415825490565b336001600160a01b0382161461061457604051634ca8886760e01b815260040160405180910390fd5b6001600160a01b0381166106145760405163e6c4247b60e01b815260040160405180910390fd5b6001600160a01b038116600090815260386020526040812060609161179a8261171c565b90506000816001600160401b038111156117b6576117b6613113565b6040519080825280602002602001820160405280156117ef57816020015b6117dc612add565b8152602001906001900390816117d45790505b50905060005b82811015610c6b5761180a610e1b8583610cbd565b82828151811061181c5761181c613129565b602002602001018190525080806118329061313f565b9150506117f5565b6060600061184760335490565b90506000816001600160401b0381111561186357611863613113565b60405190808252806020026020018201604052801561189c57816020015b611889612b56565b8152602001906001900390816118815790505b50905060005b8281101561194e5760006035816118ba846001613208565b8152602080820192909252604090810160002081516060810183528154815260018201546001600160a01b039081168286019081526002909301548116828501908152845180860190955292518116845291519091169282019290925284519192509084908490811061192f5761192f613129565b60200260200101819052505080806119469061313f565b9150506118a2565b5092915050565b61195f8282610680565b61047057611977816001600160a01b03166014612035565b611982836020612035565b604051602001611993929190613263565b60408051601f198184030181529082905262461bcd60e51b82526104e0916004016132d8565b6119c38282610680565b610470576000828152606c602090815260408083206001600160a01b03851684529091529020805460ff191660011790556119fb3390565b6001600160a01b0316816001600160a01b0316837f2f8788117e7eff1d82e926ec794901d17c78024a50270940304540a733656f0d60405160405180910390a45050565b60006104ff836001600160a01b0384166121d0565b611a5e8282610680565b15610470576000828152606c602090815260408083206001600160a01b0385168085529252808320805460ff1916905551339285917ff6391f5c32d9c69d2a47ea670b442974b53935d1edc7fd64eb21e047a839171b9190a45050565b60006104ff836001600160a01b03841661221f565b600054610100900460ff16611af75760405162461bcd60e51b81526004016104e090613158565b611aff612312565b610cbb612339565b600054610100900460ff16611b2e5760405162461bcd60e51b81526004016104e090613158565b610cbb61239e565b600054610100900460ff16611b5d5760405162461bcd60e51b81526004016104e090613158565b610cbb6123cd565b600054610100900460ff16611b8c5760405162461bcd60e51b81526004016104e090613158565b610cbb62030d40610b21565b6000826000018281548110611baf57611baf613129565b9060005260206000200154905092915050565b611bcc8282610e97565b6104705760405163c7e8934f60e01b815260040160405180910390fd5b73eeeeeeeeeeeeeeeeeeeeeeeeeeeeeeeeeeeeeeee6001600160a01b03841603611c6b5780341015611c2e576040516342f7487960e11b815260040160405180910390fd5b611c416001600160a01b03851682612401565b80341115611c6657611c66611c568234613220565b6001600160a01b03841690612401565b611c9f565b3415611c8a576040516342f7487960e11b815260040160405180910390fd5b611c9f6001600160a01b03841683868461251a565b50505050565b60006104ff83836121d0565b611cb9612b74565b50604080516060808201835260208481018051518651516001600160801b039081166fffffffffffffffffffffffffffffffff19608093841b161786529651808501518188015191850151891667ffffffffffffffff60801b92841b8316176001600160c01b031960c092831b8116919091178689015293519586015186890151969095015194901b90921693901b16941693909317929092179082015290565b611d62612b92565b506040805160c0808201835283516001600160801b0390811683850190815260208087018051841660608088019190915281516001600160401b03608091821c8116828a01529251871c60a0890152938752875180850189528951851c8152988801805190951689840152845190931c1695870195909552905190911c908401529081019190915290565b60008082606001516001600160401b03168360200151611e0d919061330b565b60408401518451611e27916001600160401b03169061330b565b611e3191906131e6565b6001600160801b0316905060006001607f1b611e4d868461333a565b611e57919061336f565b60208501519091506000906001607f1b90611e72908061330b565b6001600160801b0316611e85919061333a565b6040860151611e9d906001600160401b03168461333a565b611ea79190613208565b90506000611eb684848461255c565b90506001600160801b03811115611efa5760405162461bcd60e51b81526020600482015260086024820152676f766572666c6f7760c01b60448201526064016104e0565b9695505050505050565b6000806001607f1b83602001516001600160801b0316611f24919061333a565b9050600083606001516001600160401b03168460200151611f45919061330b565b60408501518551611f5f916001600160401b03169061330b565b611f6991906131e6565b6001600160801b03169050600084604001516001600160401b031686611f8f919061333a565b611f999083613220565b90506000611eb6611faa858961333a565b85611fb5858761333a565b612628565b80600003611fc757505050565b73eeeeeeeeeeeeeeeeeeeeeeeeeeeeeeeeeeeeeeee6001600160a01b03841603612021576040516001600160a01b0383169082156108fc029083906000818181858888f19350505050158015611c9f573d6000803e3d6000fd5b6104406001600160a01b0384168383612678565b6060600061204483600261333a565b61204f906002613208565b6001600160401b0381111561206657612066613113565b6040519080825280601f01601f191660200182016040528015612090576020820181803683370190505b509050600360fc1b816000815181106120ab576120ab613129565b60200101906001600160f81b031916908160001a905350600f60fb1b816001815181106120da576120da613129565b60200101906001600160f81b031916908160001a90535060006120fe84600261333a565b612109906001613208565b90505b6001811115612181576f181899199a1a9b1b9c1cb0b131b232b360811b85600f166010811061213d5761213d613129565b1a60f81b82828151811061215357612153613129565b60200101906001600160f81b031916908160001a90535060049490941c9361217a81613391565b905061210c565b5083156104ff5760405162461bcd60e51b815260206004820181905260248201527f537472696e67733a20686578206c656e67746820696e73756666696369656e7460448201526064016104e0565b600081815260018301602052604081205461221757508154600181810184556000848152602080822090930184905584548482528286019093526040902091909155610415565b506000610415565b60008181526001830160205260408120548015612308576000612243600183613220565b855490915060009061225790600190613220565b90508181146122bc57600086600001828154811061227757612277613129565b906000526020600020015490508087600001848154811061229a5761229a613129565b6000918252602080832090910192909255918252600188019052604090208390555b85548690806122cd576122cd6133a8565b600190038181906000526020600020016000905590558560010160008681526020019081526020016000206000905560019350505050610415565b6000915050610415565b600054610100900460ff16610cbb5760405162461bcd60e51b81526004016104e090613158565b600054610100900460ff166123605760405162461bcd60e51b81526004016104e090613158565b60d0805461ffff191660011790556123866000805160206133f8833981519152806126db565b610cbb6000805160206133f883398151915233612726565b600054610100900460ff166123c55760405162461bcd60e51b81526004016104e090613158565b600161010255565b600054610100900460ff166123f45760405162461bcd60e51b81526004016104e090613158565b610134805460ff19169055565b804710156124515760405162461bcd60e51b815260206004820152601d60248201527f416464726573733a20696e73756666696369656e742062616c616e636500000060448201526064016104e0565b6000826001600160a01b03168260405160006040518083038185875af1925050503d806000811461249e576040519150601f19603f3d011682016040523d82523d6000602084013e6124a3565b606091505b50509050806104405760405162461bcd60e51b815260206004820152603a60248201527f416464726573733a20756e61626c6520746f2073656e642076616c75652c207260448201527f6563697069656e74206d6179206861766520726576657274656400000000000060648201526084016104e0565b801580612543575073eeeeeeeeeeeeeeeeeeeeeeeeeeeeeeeeeeeeeeee6001600160a01b038516145b611c9f57611c9f6001600160a01b038516848484612730565b6000806125698585612768565b805190915060000361258d57828160200151612585919061336f565b9150506104ff565b805183116125ae57604051631a93c68960e11b815260040160405180910390fd5b60006125bb8686866127ef565b905060006125c9838361280a565b80519091506000036125ef578481602001516125e5919061336f565b93505050506104ff565b60008581038616906126018383612886565b90506000612617612612848a61336f565b6128bd565b919091029998505050505050505050565b60008061263685858561255c565b905060006126458686866127ef565b11156106ce57600019811061266d57604051631a93c68960e11b815260040160405180910390fd5b612585816001613208565b6040516001600160a01b03831660248201526044810182905261044090849063a9059cbb60e01b906064015b60408051601f198184030181529190526020810180516001600160e01b03166001600160e01b0319909316929092179091526128e8565b6000828152606c6020526040808220600101805490849055905190918391839186917fbd79b86ffe0ab8e8776151514217cd7cacd52c909f66475c3af44e129f0b00ff9190a4505050565b6104708282610aae565b6040516001600160a01b0380851660248301528316604482015260648101829052611c9f9085906323b872dd60e01b906084016126a4565b6040805180820190915260008082526020820152600061278884846129ba565b90508383028082106127bd57604051806040016040528082846127ab9190613220565b81526020018281525092505050610415565b604051806040016040528060016127d48585900390565b6127de9190613220565b815260200191909152949350505050565b600081806127ff576127ff613359565b838509949350505050565b6040805180820190915260008082526020820152818360200151106128575760405180604001604052808460000151815260200183856020015161284e9190613220565b90529050610415565b6040518060400160405280600185600001516128739190613220565b8152602001611713856020015185900390565b60008061289e6128988480840361336f565b60010190565b90508284602001516128b0919061336f565b8451820217949350505050565b60006001815b600881101561194e5783820260020382029150806128e08161313f565b9150506128c3565b600061293d826040518060400160405280602081526020017f5361666545524332303a206c6f772d6c6576656c2063616c6c206661696c6564815250856001600160a01b03166129c99092919063ffffffff16565b805190915015610440578080602001905181019061295b91906133be565b6104405760405162461bcd60e51b815260206004820152602a60248201527f5361666545524332303a204552433230206f7065726174696f6e20646964206e6044820152691bdd081cdd58d8d9595960b21b60648201526084016104e0565b60006000198284099392505050565b60606106ce8484600085856001600160a01b0385163b612a2b5760405162461bcd60e51b815260206004820152601d60248201527f416464726573733a2063616c6c20746f206e6f6e2d636f6e747261637400000060448201526064016104e0565b600080866001600160a01b03168587604051612a4791906133db565b60006040518083038185875af1925050503d8060008114612a84576040519150601f19603f3d011682016040523d82523d6000602084013e612a89565b606091505b5091509150612a99828286612aa4565b979650505050505050565b60608315612ab35750816104ff565b825115612ac35782518084602001fd5b8160405162461bcd60e51b81526004016104e091906132d8565b6040805160808101825260008082526020808301829052835180850185528281529081019190915290918201908152602001612b17612b92565b905290565b8260038101928215612b4a579160200282015b82811115612b4a578251825591602001919060010190612b2f565b50610a6b929150612bd8565b60405180604001604052806002906020820280368337509192915050565b60405180606001604052806003906020820280368337509192915050565b60405180604001604052806002905b604080516080810182526000808252602080830182905292820181905260608201528252600019909201910181612ba15790505090565b5b80821115610a6b5760008155600101612bd9565b600060208284031215612bff57600080fd5b81356001600160e01b0319811681146104ff57600080fd5b600060208284031215612c2957600080fd5b5035919050565b6001600160a01b038116811461061457600080fd5b60008060408385031215612c5857600080fd5b823591506020830135612c6a81612c30565b809150509250929050565b600060208284031215612c8757600080fd5b813563ffffffff811681146104ff57600080fd5b60008060208385031215612cae57600080fd5b82356001600160401b0380821115612cc557600080fd5b818501915085601f830112612cd957600080fd5b813581811115612ce857600080fd5b8660208260051b8501011115612cfd57600080fd5b60209290920196919550909350505050565b805182526020808201516001600160a01b03908116828501526040808401518051831682870152830151909116606080860191909152808401519060809081870160005b600281101561162d57845180516001600160801b039081168452888201511688840152868101516001600160401b03908116888501529084015116838301529386019390830190600101612d53565b6020808252825182820181905260009190848201906040850190845b81811015612de557612dd1838551612d0f565b928401926101809290920191600101612dbe565b50909695505050505050565b60008060208385031215612e0457600080fd5b82356001600160401b0380821115612e1b57600080fd5b818501915085601f830112612e2f57600080fd5b813581811115612e3e57600080fd5b866020828501011115612cfd57600080fd5b60008060408385031215612e6357600080fd5b50508035926020909101359150565b60008060408385031215612e8557600080fd5b8235612e9081612c30565b91506020830135612c6a81612c30565b80356001600160801b0381168114612eb757600080fd5b919050565b80356001600160401b0381168114612eb757600080fd5b6000806000806000806000806000806101408b8d031215612ef357600080fd5b8a35612efe81612c30565b995060208b0135612f0e81612c30565b9850612f1c60408c01612ea0565b9750612f2a60608c01612ea0565b9650612f3860808c01612ebc565b9550612f4660a08c01612ebc565b9450612f5460c08c01612ea0565b9350612f6260e08c01612ea0565b9250612f716101008c01612ebc565b9150612f806101208c01612ebc565b90509295989b9194979a5092959850565b801515811461061457600080fd5b60008060008060608587031215612fb557600080fd5b8435612fc081612c30565b935060208501356001600160401b0380821115612fdc57600080fd5b818701915087601f830112612ff057600080fd5b813581811115612fff57600080fd5b8860208260061b850101111561301457600080fd5b602083019550809450505050604085013561302e81612f91565b939692955090935050565b61018081016104158284612d0f565b60006020828403121561305a57600080fd5b81356104ff81612c30565b60208082528251828201819052600091906040908185019086840185805b838110156130c957825185835b60028110156130b65782516001600160a01b031682529189019190890190600101613090565b5050509385019391860191600101613083565b509298975050505050505050565b634e487b7160e01b600052601160045260246000fd5b600061ffff80831681851680830382111561310a5761310a6130d7565b01949350505050565b634e487b7160e01b600052604160045260246000fd5b634e487b7160e01b600052603260045260246000fd5b600060018201613151576131516130d7565b5060010190565b6020808252602b908201527f496e697469616c697a61626c653a20636f6e7472616374206973206e6f74206960408201526a6e697469616c697a696e6760a81b606082015260800190565b6000602082840312156131b557600080fd5b6104ff82612ea0565b60006001600160801b03838116908316818110156131de576131de6130d7565b039392505050565b60006001600160801b0380831681851680830382111561310a5761310a6130d7565b6000821982111561321b5761321b6130d7565b500190565b600082821015613232576132326130d7565b500390565b60005b8381101561325257818101518382015260200161323a565b83811115611c9f5750506000910152565b7f416363657373436f6e74726f6c3a206163636f756e742000000000000000000081526000835161329b816017850160208801613237565b7001034b99036b4b9b9b4b733903937b6329607d1b60179184019182015283516132cc816028840160208801613237565b01602801949350505050565b60208152600082518060208401526132f7816040850160208701613237565b601f01601f19169190910160400192915050565b60006001600160801b0380831681851681830481118215151615613331576133316130d7565b02949350505050565b6000816000190483118215151615613354576133546130d7565b500290565b634e487b7160e01b600052601260045260246000fd5b60008261338c57634e487b7160e01b600052601260045260246000fd5b500490565b6000816133a0576133a06130d7565b506000190190565b634e487b7160e01b600052603160045260246000fd5b6000602082840312156133d057600080fd5b81516104ff81612f91565b600082516133ed818460208701613237565b919091019291505056fe2172861495e7b85edac73e3cd5fbb42dd675baadf627720e687bcfdaca025096a164736f6c634300080d000a",
  "devdoc": {
    "details": "Pool Collection contract notes: - the address of reserve token serves as the pool unique ID in both contract functions and events",
    "events": {
      "NetworkFeePPMUpdated(uint32,uint32)": {
        "details": "triggered when the network fee is updated"
      }
    },
    "kind": "dev",
    "methods": {
      "constructor": {
        "details": "a \"virtual\" constructor that is only used to set immutable state variables"
      },
      "createPool(address,address)": {
        "details": "returns the network fee (in units of PPM)"
      },
      "createStrategy(address,address,uint128,uint128,uint64,uint64,uint128,uint128,uint64,uint64)": {
        "details": "creates a new strategy requirements: - the caller must have approved both source and target tokens"
      },
      "getRoleAdmin(bytes32)": {
        "details": "Returns the admin role that controls `role`. See {grantRole} and {revokeRole}. To change a role's admin, use {_setRoleAdmin}."
      },
      "getRoleMember(bytes32,uint256)": {
        "details": "Returns one of the accounts that have `role`. `index` must be a value between 0 and {getRoleMemberCount}, non-inclusive. Role bearers are not sorted in any particular way, and their ordering may change at any point. WARNING: When using {getRoleMember} and {getRoleMemberCount}, make sure you perform all queries on the same block. See the following https://forum.openzeppelin.com/t/iterating-over-elements-on-enumerableset-in-openzeppelin-contracts/2296[forum post] for more information."
      },
      "getRoleMemberCount(bytes32)": {
        "details": "Returns the number of accounts that have `role`. Can be used together with {getRoleMember} to enumerate all bearers of a role."
      },
      "grantRole(bytes32,address)": {
        "details": "Grants `role` to `account`. If `account` had not been already granted `role`, emits a {RoleGranted} event. Requirements: - the caller must have ``role``'s admin role. May emit a {RoleGranted} event."
      },
      "hasRole(bytes32,address)": {
        "details": "Returns `true` if `account` has been granted `role`."
      },
      "initialize()": {
        "details": "fully initializes the contract and its parents"
      },
      "networkFeePPM()": {
        "details": "returns the network fee (in units of PPM)"
      },
      "pairs()": {
        "details": "returns the network fee (in units of PPM)"
      },
      "paused()": {
        "details": "Returns true if the contract is paused, and false otherwise."
      },
      "pool(address,address)": {
        "details": "returns the network fee (in units of PPM)"
      },
      "poolType()": {
        "details": "returns the type of the pool"
      },
      "postUpgrade(bytes)": {
        "details": "performs post-upgrade initialization requirements: - this must can be called only once per-upgrade"
      },
      "renounceRole(bytes32,address)": {
        "details": "Revokes `role` from the calling account. Roles are often managed via {grantRole} and {revokeRole}: this function's purpose is to provide a mechanism for accounts to lose their privileges if they are compromised (such as when a trusted device is misplaced). If the calling account had been revoked `role`, emits a {RoleRevoked} event. Requirements: - the caller must be `account`. May emit a {RoleRevoked} event."
      },
      "revokeRole(bytes32,address)": {
        "details": "Revokes `role` from `account`. If `account` had been granted `role`, emits a {RoleRevoked} event. Requirements: - the caller must have ``role``'s admin role. May emit a {RoleRevoked} event."
      },
      "roleAdmin()": {
        "details": "returns the admin role"
      },
      "setNetworkFeePPM(uint32)": {
        "details": "sets the network fee (in units of PPM) requirements: - the caller must be the admin of the contract"
      },
      "strategiesByIds(uint256[])": {
        "details": "returns stored strategies matching provided ids"
      },
      "strategiesByPool(address,address)": {
        "details": "returns stored strategies belonging to a specific pool"
      },
      "strategiesByProvider(address)": {
        "details": "returns stored strategies owned by a provider"
      },
      "strategy(uint256)": {
        "details": "returns a strategy matching the provided id"
      },
      "supportsInterface(bytes4)": {
        "details": "See {IERC165-supportsInterface}."
      },
      "trade(address,(uint256,uint128)[],bool)": {
        "details": "performs a trade requirements: - the caller must have approved the source token"
      }
    },
    "version": 1
  },
  "userdoc": {
    "kind": "user",
    "methods": {},
    "version": 1
  },
  "storageLayout": {
    "storage": [
      {
        "astId": 655,
        "contract": "contracts/pools/PoolCollection.sol:PoolCollection",
        "label": "_initialized",
        "offset": 0,
        "slot": "0",
        "type": "t_uint8"
      },
      {
        "astId": 658,
        "contract": "contracts/pools/PoolCollection.sol:PoolCollection",
        "label": "_initializing",
        "offset": 1,
        "slot": "0",
        "type": "t_bool"
      },
      {
        "astId": 1269,
        "contract": "contracts/pools/PoolCollection.sol:PoolCollection",
        "label": "__gap",
        "offset": 0,
        "slot": "1",
        "type": "t_array(t_uint256)50_storage"
      },
      {
        "astId": 10752,
        "contract": "contracts/pools/PoolCollection.sol:PoolCollection",
        "label": "_lastPoolId",
        "offset": 0,
        "slot": "51",
        "type": "t_struct(Counter)1276_storage"
      },
      {
        "astId": 10760,
        "contract": "contracts/pools/PoolCollection.sol:PoolCollection",
        "label": "_poolIds",
        "offset": 0,
        "slot": "52",
        "type": "t_mapping(t_contract(Token)12363,t_mapping(t_contract(Token)12363,t_uint256))"
      },
      {
        "astId": 10765,
        "contract": "contracts/pools/PoolCollection.sol:PoolCollection",
        "label": "_poolsStorage",
        "offset": 0,
        "slot": "53",
        "type": "t_mapping(t_uint256,t_struct(Pool)10741_storage)"
      },
      {
        "astId": 11095,
        "contract": "contracts/pools/PoolCollection.sol:PoolCollection",
        "label": "_lastStrategyId",
        "offset": 0,
        "slot": "54",
        "type": "t_struct(Counter)1276_storage"
      },
      {
        "astId": 11100,
        "contract": "contracts/pools/PoolCollection.sol:PoolCollection",
        "label": "_strategiesStorage",
        "offset": 0,
        "slot": "55",
        "type": "t_mapping(t_uint256,t_struct(EncodedStrategy)11065_storage)"
      },
      {
        "astId": 11105,
        "contract": "contracts/pools/PoolCollection.sol:PoolCollection",
        "label": "_strategiesByProviderStorage",
        "offset": 0,
        "slot": "56",
        "type": "t_mapping(t_address,t_struct(UintSet)3217_storage)"
      },
      {
        "astId": 11110,
        "contract": "contracts/pools/PoolCollection.sol:PoolCollection",
        "label": "_strategiesByPoolStorage",
        "offset": 0,
        "slot": "57",
        "type": "t_mapping(t_uint256,t_struct(UintSet)3217_storage)"
      },
      {
        "astId": 1613,
        "contract": "contracts/pools/PoolCollection.sol:PoolCollection",
        "label": "__gap",
        "offset": 0,
        "slot": "58",
        "type": "t_array(t_uint256)50_storage"
      },
      {
        "astId": 250,
        "contract": "contracts/pools/PoolCollection.sol:PoolCollection",
        "label": "_roles",
        "offset": 0,
        "slot": "108",
        "type": "t_mapping(t_bytes32,t_struct(RoleData)245_storage)"
      },
      {
        "astId": 549,
        "contract": "contracts/pools/PoolCollection.sol:PoolCollection",
        "label": "__gap",
        "offset": 0,
        "slot": "109",
        "type": "t_array(t_uint256)49_storage"
      },
      {
        "astId": 99,
        "contract": "contracts/pools/PoolCollection.sol:PoolCollection",
        "label": "_roleMembers",
        "offset": 0,
        "slot": "158",
        "type": "t_mapping(t_bytes32,t_struct(AddressSet)3060_storage)"
      },
      {
        "astId": 209,
        "contract": "contracts/pools/PoolCollection.sol:PoolCollection",
        "label": "__gap",
        "offset": 0,
        "slot": "159",
        "type": "t_array(t_uint256)49_storage"
      },
      {
        "astId": 14354,
        "contract": "contracts/pools/PoolCollection.sol:PoolCollection",
        "label": "_initializations",
        "offset": 0,
        "slot": "208",
        "type": "t_uint16"
      },
      {
        "astId": 14360,
        "contract": "contracts/pools/PoolCollection.sol:PoolCollection",
        "label": "__gap",
        "offset": 0,
        "slot": "209",
        "type": "t_array(t_uint256)49_storage"
      },
      {
        "astId": 940,
        "contract": "contracts/pools/PoolCollection.sol:PoolCollection",
        "label": "_status",
        "offset": 0,
        "slot": "258",
        "type": "t_uint256"
      },
      {
        "astId": 984,
        "contract": "contracts/pools/PoolCollection.sol:PoolCollection",
        "label": "__gap",
        "offset": 0,
        "slot": "259",
        "type": "t_array(t_uint256)49_storage"
      },
      {
        "astId": 820,
        "contract": "contracts/pools/PoolCollection.sol:PoolCollection",
        "label": "_paused",
        "offset": 0,
        "slot": "308",
        "type": "t_bool"
      },
      {
        "astId": 925,
        "contract": "contracts/pools/PoolCollection.sol:PoolCollection",
        "label": "__gap",
        "offset": 0,
        "slot": "309",
        "type": "t_array(t_uint256)49_storage"
      },
      {
        "astId": 10279,
        "contract": "contracts/pools/PoolCollection.sol:PoolCollection",
        "label": "_networkFeePPM",
        "offset": 0,
        "slot": "358",
        "type": "t_uint32"
      },
      {
        "astId": 10285,
        "contract": "contracts/pools/PoolCollection.sol:PoolCollection",
        "label": "__gap",
        "offset": 0,
        "slot": "359",
        "type": "t_array(t_uint256)49_storage"
      }
    ],
    "types": {
      "t_address": {
        "encoding": "inplace",
        "label": "address",
        "numberOfBytes": "20"
      },
      "t_array(t_bytes32)dyn_storage": {
        "base": "t_bytes32",
        "encoding": "dynamic_array",
        "label": "bytes32[]",
        "numberOfBytes": "32"
      },
      "t_array(t_uint256)3_storage": {
        "base": "t_uint256",
        "encoding": "inplace",
        "label": "uint256[3]",
        "numberOfBytes": "96"
      },
      "t_array(t_uint256)49_storage": {
        "base": "t_uint256",
        "encoding": "inplace",
        "label": "uint256[49]",
        "numberOfBytes": "1568"
      },
      "t_array(t_uint256)50_storage": {
        "base": "t_uint256",
        "encoding": "inplace",
        "label": "uint256[50]",
        "numberOfBytes": "1600"
      },
      "t_bool": {
        "encoding": "inplace",
        "label": "bool",
        "numberOfBytes": "1"
      },
      "t_bytes32": {
        "encoding": "inplace",
        "label": "bytes32",
        "numberOfBytes": "32"
      },
      "t_contract(Token)12363": {
        "encoding": "inplace",
        "label": "contract Token",
        "numberOfBytes": "20"
      },
      "t_mapping(t_address,t_bool)": {
        "encoding": "mapping",
        "key": "t_address",
        "label": "mapping(address => bool)",
        "numberOfBytes": "32",
        "value": "t_bool"
      },
      "t_mapping(t_address,t_struct(UintSet)3217_storage)": {
        "encoding": "mapping",
        "key": "t_address",
        "label": "mapping(address => struct EnumerableSetUpgradeable.UintSet)",
        "numberOfBytes": "32",
        "value": "t_struct(UintSet)3217_storage"
      },
      "t_mapping(t_bytes32,t_struct(AddressSet)3060_storage)": {
        "encoding": "mapping",
        "key": "t_bytes32",
        "label": "mapping(bytes32 => struct EnumerableSetUpgradeable.AddressSet)",
        "numberOfBytes": "32",
        "value": "t_struct(AddressSet)3060_storage"
      },
      "t_mapping(t_bytes32,t_struct(RoleData)245_storage)": {
        "encoding": "mapping",
        "key": "t_bytes32",
        "label": "mapping(bytes32 => struct AccessControlUpgradeable.RoleData)",
        "numberOfBytes": "32",
        "value": "t_struct(RoleData)245_storage"
      },
      "t_mapping(t_bytes32,t_uint256)": {
        "encoding": "mapping",
        "key": "t_bytes32",
        "label": "mapping(bytes32 => uint256)",
        "numberOfBytes": "32",
        "value": "t_uint256"
      },
      "t_mapping(t_contract(Token)12363,t_mapping(t_contract(Token)12363,t_uint256))": {
        "encoding": "mapping",
        "key": "t_contract(Token)12363",
        "label": "mapping(contract Token => mapping(contract Token => uint256))",
        "numberOfBytes": "32",
        "value": "t_mapping(t_contract(Token)12363,t_uint256)"
      },
      "t_mapping(t_contract(Token)12363,t_uint256)": {
        "encoding": "mapping",
        "key": "t_contract(Token)12363",
        "label": "mapping(contract Token => uint256)",
        "numberOfBytes": "32",
        "value": "t_uint256"
      },
      "t_mapping(t_uint256,t_struct(EncodedStrategy)11065_storage)": {
        "encoding": "mapping",
        "key": "t_uint256",
        "label": "mapping(uint256 => struct EncodedStrategy)",
        "numberOfBytes": "32",
        "value": "t_struct(EncodedStrategy)11065_storage"
      },
      "t_mapping(t_uint256,t_struct(Pool)10741_storage)": {
        "encoding": "mapping",
        "key": "t_uint256",
        "label": "mapping(uint256 => struct Pool)",
        "numberOfBytes": "32",
        "value": "t_struct(Pool)10741_storage"
      },
      "t_mapping(t_uint256,t_struct(UintSet)3217_storage)": {
        "encoding": "mapping",
        "key": "t_uint256",
        "label": "mapping(uint256 => struct EnumerableSetUpgradeable.UintSet)",
        "numberOfBytes": "32",
        "value": "t_struct(UintSet)3217_storage"
      },
      "t_struct(AddressSet)3060_storage": {
        "encoding": "inplace",
        "label": "struct EnumerableSetUpgradeable.AddressSet",
        "members": [
          {
            "astId": 3059,
            "contract": "contracts/pools/PoolCollection.sol:PoolCollection",
            "label": "_inner",
            "offset": 0,
            "slot": "0",
            "type": "t_struct(Set)2759_storage"
          }
        ],
        "numberOfBytes": "64"
      },
      "t_struct(Counter)1276_storage": {
        "encoding": "inplace",
        "label": "struct CountersUpgradeable.Counter",
        "members": [
          {
            "astId": 1275,
            "contract": "contracts/pools/PoolCollection.sol:PoolCollection",
            "label": "_value",
            "offset": 0,
            "slot": "0",
            "type": "t_uint256"
          }
        ],
        "numberOfBytes": "32"
      },
      "t_struct(EncodedStrategy)11065_storage": {
        "encoding": "inplace",
        "label": "struct EncodedStrategy",
        "members": [
          {
            "astId": 11055,
            "contract": "contracts/pools/PoolCollection.sol:PoolCollection",
            "label": "id",
            "offset": 0,
            "slot": "0",
            "type": "t_uint256"
          },
          {
            "astId": 11057,
            "contract": "contracts/pools/PoolCollection.sol:PoolCollection",
            "label": "provider",
            "offset": 0,
            "slot": "1",
            "type": "t_address"
          },
          {
            "astId": 11060,
            "contract": "contracts/pools/PoolCollection.sol:PoolCollection",
            "label": "tokens",
            "offset": 0,
            "slot": "2",
            "type": "t_struct(SourceTargetTokens)12101_storage"
          },
          {
            "astId": 11064,
            "contract": "contracts/pools/PoolCollection.sol:PoolCollection",
            "label": "orders",
            "offset": 0,
            "slot": "4",
            "type": "t_array(t_uint256)3_storage"
          }
        ],
        "numberOfBytes": "224"
      },
      "t_struct(Pool)10741_storage": {
        "encoding": "inplace",
        "label": "struct Pool",
        "members": [
          {
            "astId": 10734,
            "contract": "contracts/pools/PoolCollection.sol:PoolCollection",
            "label": "id",
            "offset": 0,
            "slot": "0",
            "type": "t_uint256"
          },
          {
            "astId": 10737,
            "contract": "contracts/pools/PoolCollection.sol:PoolCollection",
            "label": "token0",
            "offset": 0,
            "slot": "1",
            "type": "t_contract(Token)12363"
          },
          {
            "astId": 10740,
            "contract": "contracts/pools/PoolCollection.sol:PoolCollection",
            "label": "token1",
            "offset": 0,
            "slot": "2",
            "type": "t_contract(Token)12363"
          }
        ],
        "numberOfBytes": "96"
      },
      "t_struct(RoleData)245_storage": {
        "encoding": "inplace",
        "label": "struct AccessControlUpgradeable.RoleData",
        "members": [
          {
            "astId": 242,
            "contract": "contracts/pools/PoolCollection.sol:PoolCollection",
            "label": "members",
            "offset": 0,
            "slot": "0",
            "type": "t_mapping(t_address,t_bool)"
          },
          {
            "astId": 244,
            "contract": "contracts/pools/PoolCollection.sol:PoolCollection",
            "label": "adminRole",
            "offset": 0,
            "slot": "1",
            "type": "t_bytes32"
          }
        ],
        "numberOfBytes": "64"
      },
      "t_struct(Set)2759_storage": {
        "encoding": "inplace",
        "label": "struct EnumerableSetUpgradeable.Set",
        "members": [
          {
            "astId": 2754,
            "contract": "contracts/pools/PoolCollection.sol:PoolCollection",
            "label": "_values",
            "offset": 0,
            "slot": "0",
            "type": "t_array(t_bytes32)dyn_storage"
          },
          {
            "astId": 2758,
            "contract": "contracts/pools/PoolCollection.sol:PoolCollection",
            "label": "_indexes",
            "offset": 0,
            "slot": "1",
            "type": "t_mapping(t_bytes32,t_uint256)"
          }
        ],
        "numberOfBytes": "64"
      },
      "t_struct(SourceTargetTokens)12101_storage": {
        "encoding": "inplace",
        "label": "struct SourceTargetTokens",
        "members": [
          {
            "astId": 12097,
            "contract": "contracts/pools/PoolCollection.sol:PoolCollection",
            "label": "source",
            "offset": 0,
            "slot": "0",
            "type": "t_contract(Token)12363"
          },
          {
            "astId": 12100,
            "contract": "contracts/pools/PoolCollection.sol:PoolCollection",
            "label": "target",
            "offset": 0,
            "slot": "1",
            "type": "t_contract(Token)12363"
          }
        ],
        "numberOfBytes": "64"
      },
      "t_struct(UintSet)3217_storage": {
        "encoding": "inplace",
        "label": "struct EnumerableSetUpgradeable.UintSet",
        "members": [
          {
            "astId": 3216,
            "contract": "contracts/pools/PoolCollection.sol:PoolCollection",
            "label": "_inner",
            "offset": 0,
            "slot": "0",
            "type": "t_struct(Set)2759_storage"
          }
        ],
        "numberOfBytes": "64"
      },
      "t_uint16": {
        "encoding": "inplace",
        "label": "uint16",
        "numberOfBytes": "2"
      },
      "t_uint256": {
        "encoding": "inplace",
        "label": "uint256",
        "numberOfBytes": "32"
      },
      "t_uint32": {
        "encoding": "inplace",
        "label": "uint32",
        "numberOfBytes": "4"
      },
      "t_uint8": {
        "encoding": "inplace",
        "label": "uint8",
        "numberOfBytes": "1"
      }
    }
  }
}