{
  "address": "0x31051bCd26B8EaEFE4EfA54E0668B133ee7C44c0",
  "abi": [
    {
      "inputs": [
        {
          "internalType": "bool",
          "name": "newUseGlobalURI",
          "type": "bool"
        },
        {
          "internalType": "string",
          "name": "newBaseURI",
          "type": "string"
        },
        {
          "internalType": "string",
          "name": "newBaseExtension",
          "type": "string"
        }
      ],
      "stateMutability": "nonpayable",
      "type": "constructor"
    },
    {
      "inputs": [],
      "name": "AccessDenied",
      "type": "error"
    },
    {
      "inputs": [],
      "name": "CarbonControllerNotSet",
      "type": "error"
    },
    {
      "inputs": [],
      "name": "InvalidAddress",
      "type": "error"
    },
    {
      "anonymous": false,
      "inputs": [
        {
          "indexed": true,
          "internalType": "address",
          "name": "owner",
          "type": "address"
        },
        {
          "indexed": true,
          "internalType": "address",
          "name": "approved",
          "type": "address"
        },
        {
          "indexed": true,
          "internalType": "uint256",
          "name": "tokenId",
          "type": "uint256"
        }
      ],
      "name": "Approval",
      "type": "event"
    },
    {
      "anonymous": false,
      "inputs": [
        {
          "indexed": true,
          "internalType": "address",
          "name": "owner",
          "type": "address"
        },
        {
          "indexed": true,
          "internalType": "address",
          "name": "operator",
          "type": "address"
        },
        {
          "indexed": false,
          "internalType": "bool",
          "name": "approved",
          "type": "bool"
        }
      ],
      "name": "ApprovalForAll",
      "type": "event"
    },
    {
      "anonymous": false,
      "inputs": [
        {
          "indexed": false,
          "internalType": "string",
          "name": "newBaseExtension",
          "type": "string"
        }
      ],
      "name": "BaseExtensionUpdated",
      "type": "event"
    },
    {
      "anonymous": false,
      "inputs": [
        {
          "indexed": false,
          "internalType": "string",
          "name": "newBaseURI",
          "type": "string"
        }
      ],
      "name": "BaseURIUpdated",
      "type": "event"
    },
    {
      "anonymous": false,
      "inputs": [
        {
          "indexed": false,
          "internalType": "contract CarbonController",
          "name": "carbonController",
          "type": "address"
        }
      ],
      "name": "CarbonControllerUpdated",
      "type": "event"
    },
    {
      "anonymous": false,
      "inputs": [
        {
          "indexed": true,
          "internalType": "address",
          "name": "previousOwner",
          "type": "address"
        },
        {
          "indexed": true,
          "internalType": "address",
          "name": "newOwner",
          "type": "address"
        }
      ],
      "name": "OwnershipTransferred",
      "type": "event"
    },
    {
      "anonymous": false,
      "inputs": [
        {
          "indexed": true,
          "internalType": "address",
          "name": "from",
          "type": "address"
        },
        {
          "indexed": true,
          "internalType": "address",
          "name": "to",
          "type": "address"
        },
        {
          "indexed": true,
          "internalType": "uint256",
          "name": "tokenId",
          "type": "uint256"
        }
      ],
      "name": "Transfer",
      "type": "event"
    },
    {
      "anonymous": false,
      "inputs": [
        {
          "indexed": false,
          "internalType": "bool",
          "name": "newUseGlobalURI",
          "type": "bool"
        }
      ],
      "name": "UseGlobalURIUpdated",
      "type": "event"
    },
    {
      "inputs": [
        {
          "internalType": "address",
          "name": "to",
          "type": "address"
        },
        {
          "internalType": "uint256",
          "name": "tokenId",
          "type": "uint256"
        }
      ],
      "name": "approve",
      "outputs": [],
      "stateMutability": "nonpayable",
      "type": "function"
    },
    {
      "inputs": [
        {
          "internalType": "address",
          "name": "owner",
          "type": "address"
        }
      ],
      "name": "balanceOf",
      "outputs": [
        {
          "internalType": "uint256",
          "name": "",
          "type": "uint256"
        }
      ],
      "stateMutability": "view",
      "type": "function"
    },
    {
      "inputs": [
        {
          "internalType": "uint256",
          "name": "strategyId",
          "type": "uint256"
        }
      ],
      "name": "burn",
      "outputs": [],
      "stateMutability": "nonpayable",
      "type": "function"
    },
    {
      "inputs": [
        {
          "internalType": "uint256",
          "name": "tokenId",
          "type": "uint256"
        }
      ],
      "name": "getApproved",
      "outputs": [
        {
          "internalType": "address",
          "name": "",
          "type": "address"
        }
      ],
      "stateMutability": "view",
      "type": "function"
    },
    {
      "inputs": [
        {
          "internalType": "address",
          "name": "owner",
          "type": "address"
        },
        {
          "internalType": "address",
          "name": "operator",
          "type": "address"
        }
      ],
      "name": "isApprovedForAll",
      "outputs": [
        {
          "internalType": "bool",
          "name": "",
          "type": "bool"
        }
      ],
      "stateMutability": "view",
      "type": "function"
    },
    {
      "inputs": [
        {
          "internalType": "address",
          "name": "provider",
          "type": "address"
        },
        {
          "internalType": "uint256",
          "name": "strategyId",
          "type": "uint256"
        }
      ],
      "name": "mint",
      "outputs": [],
      "stateMutability": "nonpayable",
      "type": "function"
    },
    {
      "inputs": [],
      "name": "name",
      "outputs": [
        {
          "internalType": "string",
          "name": "",
          "type": "string"
        }
      ],
      "stateMutability": "view",
      "type": "function"
    },
    {
      "inputs": [],
      "name": "owner",
      "outputs": [
        {
          "internalType": "address",
          "name": "",
          "type": "address"
        }
      ],
      "stateMutability": "view",
      "type": "function"
    },
    {
      "inputs": [
        {
          "internalType": "uint256",
          "name": "tokenId",
          "type": "uint256"
        }
      ],
      "name": "ownerOf",
      "outputs": [
        {
          "internalType": "address",
          "name": "",
          "type": "address"
        }
      ],
      "stateMutability": "view",
      "type": "function"
    },
    {
      "inputs": [],
      "name": "renounceOwnership",
      "outputs": [],
      "stateMutability": "nonpayable",
      "type": "function"
    },
    {
      "inputs": [
        {
          "internalType": "address",
          "name": "from",
          "type": "address"
        },
        {
          "internalType": "address",
          "name": "to",
          "type": "address"
        },
        {
          "internalType": "uint256",
          "name": "tokenId",
          "type": "uint256"
        }
      ],
      "name": "safeTransferFrom",
      "outputs": [],
      "stateMutability": "nonpayable",
      "type": "function"
    },
    {
      "inputs": [
        {
          "internalType": "address",
          "name": "from",
          "type": "address"
        },
        {
          "internalType": "address",
          "name": "to",
          "type": "address"
        },
        {
          "internalType": "uint256",
          "name": "tokenId",
          "type": "uint256"
        },
        {
          "internalType": "bytes",
          "name": "data",
          "type": "bytes"
        }
      ],
      "name": "safeTransferFrom",
      "outputs": [],
      "stateMutability": "nonpayable",
      "type": "function"
    },
    {
      "inputs": [
        {
          "internalType": "address",
          "name": "operator",
          "type": "address"
        },
        {
          "internalType": "bool",
          "name": "approved",
          "type": "bool"
        }
      ],
      "name": "setApprovalForAll",
      "outputs": [],
      "stateMutability": "nonpayable",
      "type": "function"
    },
    {
      "inputs": [
        {
          "internalType": "string",
          "name": "newBaseExtension",
          "type": "string"
        }
      ],
      "name": "setBaseExtension",
      "outputs": [],
      "stateMutability": "nonpayable",
      "type": "function"
    },
    {
      "inputs": [
        {
          "internalType": "string",
          "name": "newBaseURI",
          "type": "string"
        }
      ],
      "name": "setBaseURI",
      "outputs": [],
      "stateMutability": "nonpayable",
      "type": "function"
    },
    {
      "inputs": [
        {
          "internalType": "contract CarbonController",
          "name": "carbonController",
          "type": "address"
        }
      ],
      "name": "setCarbonController",
      "outputs": [],
      "stateMutability": "nonpayable",
      "type": "function"
    },
    {
      "inputs": [
        {
          "internalType": "bytes4",
          "name": "interfaceId",
          "type": "bytes4"
        }
      ],
      "name": "supportsInterface",
      "outputs": [
        {
          "internalType": "bool",
          "name": "",
          "type": "bool"
        }
      ],
      "stateMutability": "view",
      "type": "function"
    },
    {
      "inputs": [],
      "name": "symbol",
      "outputs": [
        {
          "internalType": "string",
          "name": "",
          "type": "string"
        }
      ],
      "stateMutability": "view",
      "type": "function"
    },
    {
      "inputs": [
        {
          "internalType": "uint256",
          "name": "index",
          "type": "uint256"
        }
      ],
      "name": "tokenByIndex",
      "outputs": [
        {
          "internalType": "uint256",
          "name": "",
          "type": "uint256"
        }
      ],
      "stateMutability": "view",
      "type": "function"
    },
    {
      "inputs": [
        {
          "internalType": "address",
          "name": "owner",
          "type": "address"
        },
        {
          "internalType": "uint256",
          "name": "index",
          "type": "uint256"
        }
      ],
      "name": "tokenOfOwnerByIndex",
      "outputs": [
        {
          "internalType": "uint256",
          "name": "",
          "type": "uint256"
        }
      ],
      "stateMutability": "view",
      "type": "function"
    },
    {
      "inputs": [
        {
          "internalType": "uint256",
          "name": "tokenId",
          "type": "uint256"
        }
      ],
      "name": "tokenURI",
      "outputs": [
        {
          "internalType": "string",
          "name": "",
          "type": "string"
        }
      ],
      "stateMutability": "view",
      "type": "function"
    },
    {
      "inputs": [],
      "name": "totalSupply",
      "outputs": [
        {
          "internalType": "uint256",
          "name": "",
          "type": "uint256"
        }
      ],
      "stateMutability": "view",
      "type": "function"
    },
    {
      "inputs": [
        {
          "internalType": "address",
          "name": "from",
          "type": "address"
        },
        {
          "internalType": "address",
          "name": "to",
          "type": "address"
        },
        {
          "internalType": "uint256",
          "name": "tokenId",
          "type": "uint256"
        }
      ],
      "name": "transferFrom",
      "outputs": [],
      "stateMutability": "nonpayable",
      "type": "function"
    },
    {
      "inputs": [
        {
          "internalType": "address",
          "name": "newOwner",
          "type": "address"
        }
      ],
      "name": "transferOwnership",
      "outputs": [],
      "stateMutability": "nonpayable",
      "type": "function"
    },
    {
      "inputs": [
        {
          "internalType": "bool",
          "name": "newUseGlobalURI",
          "type": "bool"
        }
      ],
      "name": "useGlobalURI",
      "outputs": [],
      "stateMutability": "nonpayable",
      "type": "function"
    }
  ],
  "transactionHash": "0xcb55be275dc695c30a1767d16883659cc66df87cc6b7379058b13c14a02f12f9",
  "args": [
    true,
    "ipfs://QmNmM9iSZt4FK3HZWMadboQ4nB1W3tjyZDeqyZ9g4xesAt",
    ""
  ],
  "numDeployments": 1,
  "solcInputHash": "08bf590979e604414a30f039f8f25194",
  "bytecode": "0x60806040523480156200001157600080fd5b50604051620024fe380380620024fe83398101604081905262000034916200036a565b604051806060016040528060218152602001620024dd6021913960408051808201909152600c81526b10d0549093d38b54d514905560a21b602082015260006200007f83826200047c565b5060016200008e82826200047c565b505050620000ab620000a5620000d560201b60201c565b620000d9565b620000b6836200012b565b620000c182620001a8565b620000cc81620001f2565b5050506200057d565b3390565b600a80546001600160a01b038381166001600160a01b0319831681179093556040519116919082907f8be0079c531659141344cd1fd0a4f28419497f9722a3daafe3b4186f6b6457e090600090a35050565b620001356200023c565b600b5460ff600160a01b90910416151581151514620001a557600b8054821515600160a01b0260ff60a01b199091161790556040517f97b12620440c99b10431803699fdba59f6ada913f01df22599100da54860f045906200019c90831515815260200190565b60405180910390a15b50565b620001b26200023c565b600c620001c082826200047c565b507f6741b2fc379fad678116fe3d4d4b9a1a184ab53ba36b86ad0fa66340b1ab41ad816040516200019c919062000548565b620001fc6200023c565b600d6200020a82826200047c565b507f497a2ce104c6e48bc47b6b9084280dcda949acc005c5e715f19a96de56781ada816040516200019c919062000548565b600a546001600160a01b031633146200029b5760405162461bcd60e51b815260206004820181905260248201527f4f776e61626c653a2063616c6c6572206973206e6f7420746865206f776e6572604482015260640160405180910390fd5b565b634e487b7160e01b600052604160045260246000fd5b60005b83811015620002d0578181015183820152602001620002b6565b50506000910152565b600082601f830112620002eb57600080fd5b81516001600160401b03808211156200030857620003086200029d565b604051601f8301601f19908116603f011681019082821181831017156200033357620003336200029d565b816040528381528660208588010111156200034d57600080fd5b62000360846020830160208901620002b3565b9695505050505050565b6000806000606084860312156200038057600080fd5b835180151581146200039157600080fd5b60208501519093506001600160401b0380821115620003af57600080fd5b620003bd87838801620002d9565b93506040860151915080821115620003d457600080fd5b50620003e386828701620002d9565b9150509250925092565b600181811c908216806200040257607f821691505b6020821081036200042357634e487b7160e01b600052602260045260246000fd5b50919050565b601f8211156200047757600081815260208120601f850160051c81016020861015620004525750805b601f850160051c820191505b8181101562000473578281556001016200045e565b5050505b505050565b81516001600160401b038111156200049857620004986200029d565b620004b081620004a98454620003ed565b8462000429565b602080601f831160018114620004e85760008415620004cf5750858301515b600019600386901b1c1916600185901b17855562000473565b600085815260208120601f198616915b828110156200051957888601518255948401946001909101908401620004f8565b5085821015620005385787850151600019600388901b60f8161c191681555b5050505050600190811b01905550565b602081526000825180602084015262000569816040850160208701620002b3565b601f01601f19169190910160400192915050565b611f50806200058d6000396000f3fe608060405234801561001057600080fd5b50600436106101735760003560e01c806355f804b3116100de57806395d89b4111610097578063c87b56dd11610071578063c87b56dd1461031f578063da3ef23f14610332578063e985e9c514610345578063f2fde38b1461038157600080fd5b806395d89b41146102f1578063a22cb465146102f9578063b88d4fde1461030c57600080fd5b806355f804b31461028c57806358e360c31461029f5780636352211e146102b257806370a08231146102c5578063715018a6146102d85780638da5cb5b146102e057600080fd5b80632f745c59116101305780632f745c591461021a57806340c10f191461022d57806342842e0e1461024057806342966c681461025357806349ade096146102665780634f6ccce71461027957600080fd5b806301ffc9a71461017857806306fdde03146101a0578063081812fc146101b5578063095ea7b3146101e057806318160ddd146101f557806323b872dd14610207575b600080fd5b61018b610186366004611890565b610394565b60405190151581526020015b60405180910390f35b6101a86103bf565b60405161019791906118fd565b6101c86101c3366004611910565b610451565b6040516001600160a01b039091168152602001610197565b6101f36101ee36600461193e565b610478565b005b6008545b604051908152602001610197565b6101f361021536600461196a565b610592565b6101f961022836600461193e565b6105c3565b6101f361023b36600461193e565b610659565b6101f361024e36600461196a565b610678565b6101f3610261366004611910565b610693565b6101f36102743660046119c0565b6106b5565b6101f9610287366004611910565b61072e565b6101f361029a366004611a67565b6107c1565b6101f36102ad366004611ab0565b610805565b6101c86102c0366004611910565b610881565b6101f96102d3366004611ab0565b6108e1565b6101f3610967565b600a546001600160a01b03166101c8565b6101a861097b565b6101f3610307366004611acd565b61098a565b6101f361031a366004611b02565b610995565b6101a861032d366004611910565b6109cd565b6101f3610340366004611a67565b610a5a565b61018b610353366004611b82565b6001600160a01b03918216600090815260056020908152604080832093909416825291909152205460ff1690565b6101f361038f366004611ab0565b610a9e565b60006001600160e01b0319821663780e9d6360e01b14806103b957506103b982610b14565b92915050565b6060600080546103ce90611bbb565b80601f01602080910402602001604051908101604052809291908181526020018280546103fa90611bbb565b80156104475780601f1061041c57610100808354040283529160200191610447565b820191906000526020600020905b81548152906001019060200180831161042a57829003601f168201915b5050505050905090565b600061045c82610b64565b506000908152600460205260409020546001600160a01b031690565b600061048382610881565b9050806001600160a01b0316836001600160a01b0316036104f55760405162461bcd60e51b815260206004820152602160248201527f4552433732313a20617070726f76616c20746f2063757272656e74206f776e656044820152603960f91b60648201526084015b60405180910390fd5b336001600160a01b038216148061051157506105118133610353565b6105835760405162461bcd60e51b815260206004820152603d60248201527f4552433732313a20617070726f76652063616c6c6572206973206e6f7420746f60448201527f6b656e206f776e6572206f7220617070726f76656420666f7220616c6c00000060648201526084016104ec565b61058d8383610bc3565b505050565b61059c3382610c31565b6105b85760405162461bcd60e51b81526004016104ec90611bef565b61058d838383610cb0565b60006105ce836108e1565b82106106305760405162461bcd60e51b815260206004820152602b60248201527f455243373231456e756d657261626c653a206f776e657220696e646578206f7560448201526a74206f6620626f756e647360a81b60648201526084016104ec565b506001600160a01b03919091166000908152600660209081526040808320938352929052205490565b600b546001600160a01b031661066e81610e21565b61058d8383610e4a565b61058d83838360405180602001604052806000815250610995565b600b546001600160a01b03166106a881610e21565b6106b182610e64565b5050565b6106bd610f07565b600b5460ff600160a01b9091041615158115151461072b57600b8054821515600160a01b0260ff60a01b199091161790556040517f97b12620440c99b10431803699fdba59f6ada913f01df22599100da54860f0459061072290831515815260200190565b60405180910390a15b50565b600061073960085490565b821061079c5760405162461bcd60e51b815260206004820152602c60248201527f455243373231456e756d657261626c653a20676c6f62616c20696e646578206f60448201526b7574206f6620626f756e647360a01b60648201526084016104ec565b600882815481106107af576107af611c3c565b90600052602060002001549050919050565b6107c9610f07565b600c6107d58282611ca0565b507f6741b2fc379fad678116fe3d4d4b9a1a184ab53ba36b86ad0fa66340b1ab41ad8160405161072291906118fd565b61080d610f07565b8061081781610f61565b600b546001600160a01b038381169116146106b157600b80546001600160a01b0319166001600160a01b0384169081179091556040519081527fa539192750ccc1ebcfab894cb350373b72bb133e38bab303dd67ebc2062845209060200160405180910390a15050565b6000818152600260205260408120546001600160a01b0316806103b95760405162461bcd60e51b8152602060048201526018602482015277115490cdcc8c4e881a5b9d985b1a59081d1bdad95b88125160421b60448201526064016104ec565b60006001600160a01b03821661094b5760405162461bcd60e51b815260206004820152602960248201527f4552433732313a2061646472657373207a65726f206973206e6f7420612076616044820152683634b21037bbb732b960b91b60648201526084016104ec565b506001600160a01b031660009081526003602052604090205490565b61096f610f07565b6109796000610f88565b565b6060600180546103ce90611bbb565b6106b1338383610fda565b61099f3383610c31565b6109bb5760405162461bcd60e51b81526004016104ec90611bef565b6109c7848484846110a8565b50505050565b60606109d882610b64565b60006109e26110db565b600b54909150600160a01b900460ff161515600103610a015792915050565b6000815111610a1f5760405180602001604052806000815250610a4d565b80610a29846110ea565b600d604051602001610a3d93929190611d60565b6040516020818303038152906040525b9392505050565b50919050565b610a62610f07565b600d610a6e8282611ca0565b507f497a2ce104c6e48bc47b6b9084280dcda949acc005c5e715f19a96de56781ada8160405161072291906118fd565b610aa6610f07565b6001600160a01b038116610b0b5760405162461bcd60e51b815260206004820152602660248201527f4f776e61626c653a206e6577206f776e657220697320746865207a65726f206160448201526564647265737360d01b60648201526084016104ec565b61072b81610f88565b60006001600160e01b031982166380ac58cd60e01b1480610b4557506001600160e01b03198216635b5e139f60e01b145b806103b957506301ffc9a760e01b6001600160e01b03198316146103b9565b6000818152600260205260409020546001600160a01b031661072b5760405162461bcd60e51b8152602060048201526018602482015277115490cdcc8c4e881a5b9d985b1a59081d1bdad95b88125160421b60448201526064016104ec565b600081815260046020526040902080546001600160a01b0319166001600160a01b0384169081179091558190610bf882610881565b6001600160a01b03167f8c5be1e5ebec7d5bd14f71427d1e84f3dd0314c0f7b2291e5b200ac8c7c3b92560405160405180910390a45050565b600080610c3d83610881565b9050806001600160a01b0316846001600160a01b03161480610c8457506001600160a01b0380821660009081526005602090815260408083209388168352929052205460ff165b80610ca85750836001600160a01b0316610c9d84610451565b6001600160a01b0316145b949350505050565b826001600160a01b0316610cc382610881565b6001600160a01b031614610ce95760405162461bcd60e51b81526004016104ec90611e00565b6001600160a01b038216610d4b5760405162461bcd60e51b8152602060048201526024808201527f4552433732313a207472616e7366657220746f20746865207a65726f206164646044820152637265737360e01b60648201526084016104ec565b610d58838383600161117d565b826001600160a01b0316610d6b82610881565b6001600160a01b031614610d915760405162461bcd60e51b81526004016104ec90611e00565b600081815260046020908152604080832080546001600160a01b03199081169091556001600160a01b0387811680865260038552838620805460001901905590871680865283862080546001019055868652600290945282852080549092168417909155905184937fddf252ad1be2c89b69c2b068fc378daa952ba7f163c4a11628f55a4df523b3ef91a4505050565b336001600160a01b0382161461072b57604051634ca8886760e01b815260040160405180910390fd5b6106b18282604051806020016040528060008152506112bd565b6000610e6f82610881565b9050610e7f81600084600161117d565b610e8882610881565b600083815260046020908152604080832080546001600160a01b03199081169091556001600160a01b0385168085526003845282852080546000190190558785526002909352818420805490911690555192935084927fddf252ad1be2c89b69c2b068fc378daa952ba7f163c4a11628f55a4df523b3ef908390a45050565b600a546001600160a01b031633146109795760405162461bcd60e51b815260206004820181905260248201527f4f776e61626c653a2063616c6c6572206973206e6f7420746865206f776e657260448201526064016104ec565b6001600160a01b03811661072b5760405163e6c4247b60e01b815260040160405180910390fd5b600a80546001600160a01b038381166001600160a01b0319831681179093556040519116919082907f8be0079c531659141344cd1fd0a4f28419497f9722a3daafe3b4186f6b6457e090600090a35050565b816001600160a01b0316836001600160a01b03160361103b5760405162461bcd60e51b815260206004820152601960248201527f4552433732313a20617070726f766520746f2063616c6c65720000000000000060448201526064016104ec565b6001600160a01b03838116600081815260056020908152604080832094871680845294825291829020805460ff191686151590811790915591519182527f17307eab39ab6107e8899845ad3d59bd9653f200f220920489ca2b5937696c31910160405180910390a3505050565b6110b3848484610cb0565b6110bf848484846112f0565b6109c75760405162461bcd60e51b81526004016104ec90611e45565b6060600c80546103ce90611bbb565b606060006110f7836113f1565b600101905060008167ffffffffffffffff811115611117576111176119db565b6040519080825280601f01601f191660200182016040528015611141576020820181803683370190505b5090508181016020015b600019016f181899199a1a9b1b9c1cb0b131b232b360811b600a86061a8153600a850494508461114b57509392505050565b611189848484846114c9565b60018111156111f85760405162461bcd60e51b815260206004820152603560248201527f455243373231456e756d657261626c653a20636f6e7365637574697665207472604482015274185b9cd9995c9cc81b9bdd081cdd5c1c1bdc9d1959605a1b60648201526084016104ec565b816001600160a01b0385166112545761124f81600880546000838152600960205260408120829055600182018355919091527ff3f7a9fe364faab93b216da50a3214154f22a0a2b415b23a84c8169e8b636ee30155565b611277565b836001600160a01b0316856001600160a01b031614611277576112778582611551565b6001600160a01b0384166112935761128e816115ee565b6112b6565b846001600160a01b0316846001600160a01b0316146112b6576112b6848261169d565b5050505050565b6112c783836116e1565b6112d460008484846112f0565b61058d5760405162461bcd60e51b81526004016104ec90611e45565b60006001600160a01b0384163b156113e657604051630a85bd0160e11b81526001600160a01b0385169063150b7a0290611334903390899088908890600401611e97565b6020604051808303816000875af192505050801561136f575060408051601f3d908101601f1916820190925261136c91810190611ed4565b60015b6113cc573d80801561139d576040519150601f19603f3d011682016040523d82523d6000602084013e6113a2565b606091505b5080516000036113c45760405162461bcd60e51b81526004016104ec90611e45565b805181602001fd5b6001600160e01b031916630a85bd0160e11b149050610ca8565b506001949350505050565b60008072184f03e93ff9f4daa797ed6e38ed64bf6a1f0160401b83106114305772184f03e93ff9f4daa797ed6e38ed64bf6a1f0160401b830492506040015b6d04ee2d6d415b85acef8100000000831061145c576d04ee2d6d415b85acef8100000000830492506020015b662386f26fc10000831061147a57662386f26fc10000830492506010015b6305f5e1008310611492576305f5e100830492506008015b61271083106114a657612710830492506004015b606483106114b8576064830492506002015b600a83106103b95760010192915050565b60018111156109c7576001600160a01b0384161561150f576001600160a01b03841660009081526003602052604081208054839290611509908490611f07565b90915550505b6001600160a01b038316156109c7576001600160a01b03831660009081526003602052604081208054839290611546908490611f1a565b909155505050505050565b6000600161155e846108e1565b6115689190611f07565b6000838152600760205260409020549091508082146115bb576001600160a01b03841660009081526006602090815260408083208584528252808320548484528184208190558352600790915290208190555b5060009182526007602090815260408084208490556001600160a01b039094168352600681528383209183525290812055565b60085460009061160090600190611f07565b6000838152600960205260408120546008805493945090928490811061162857611628611c3c565b90600052602060002001549050806008838154811061164957611649611c3c565b600091825260208083209091019290925582815260099091526040808220849055858252812055600880548061168157611681611f2d565b6001900381819060005260206000200160009055905550505050565b60006116a8836108e1565b6001600160a01b039093166000908152600660209081526040808320868452825280832085905593825260079052919091209190915550565b6001600160a01b0382166117375760405162461bcd60e51b815260206004820181905260248201527f4552433732313a206d696e7420746f20746865207a65726f206164647265737360448201526064016104ec565b6000818152600260205260409020546001600160a01b03161561179c5760405162461bcd60e51b815260206004820152601c60248201527f4552433732313a20746f6b656e20616c7265616479206d696e7465640000000060448201526064016104ec565b6117aa60008383600161117d565b6000818152600260205260409020546001600160a01b03161561180f5760405162461bcd60e51b815260206004820152601c60248201527f4552433732313a20746f6b656e20616c7265616479206d696e7465640000000060448201526064016104ec565b6001600160a01b038216600081815260036020908152604080832080546001019055848352600290915280822080546001600160a01b0319168417905551839291907fddf252ad1be2c89b69c2b068fc378daa952ba7f163c4a11628f55a4df523b3ef908290a45050565b6001600160e01b03198116811461072b57600080fd5b6000602082840312156118a257600080fd5b8135610a4d8161187a565b60005b838110156118c85781810151838201526020016118b0565b50506000910152565b600081518084526118e98160208601602086016118ad565b601f01601f19169290920160200192915050565b602081526000610a4d60208301846118d1565b60006020828403121561192257600080fd5b5035919050565b6001600160a01b038116811461072b57600080fd5b6000806040838503121561195157600080fd5b823561195c81611929565b946020939093013593505050565b60008060006060848603121561197f57600080fd5b833561198a81611929565b9250602084013561199a81611929565b929592945050506040919091013590565b803580151581146119bb57600080fd5b919050565b6000602082840312156119d257600080fd5b610a4d826119ab565b634e487b7160e01b600052604160045260246000fd5b600067ffffffffffffffff80841115611a0c57611a0c6119db565b604051601f8501601f19908116603f01168101908282118183101715611a3457611a346119db565b81604052809350858152868686011115611a4d57600080fd5b858560208301376000602087830101525050509392505050565b600060208284031215611a7957600080fd5b813567ffffffffffffffff811115611a9057600080fd5b8201601f81018413611aa157600080fd5b610ca8848235602084016119f1565b600060208284031215611ac257600080fd5b8135610a4d81611929565b60008060408385031215611ae057600080fd5b8235611aeb81611929565b9150611af9602084016119ab565b90509250929050565b60008060008060808587031215611b1857600080fd5b8435611b2381611929565b93506020850135611b3381611929565b925060408501359150606085013567ffffffffffffffff811115611b5657600080fd5b8501601f81018713611b6757600080fd5b611b76878235602084016119f1565b91505092959194509250565b60008060408385031215611b9557600080fd5b8235611ba081611929565b91506020830135611bb081611929565b809150509250929050565b600181811c90821680611bcf57607f821691505b602082108103610a5457634e487b7160e01b600052602260045260246000fd5b6020808252602d908201527f4552433732313a2063616c6c6572206973206e6f7420746f6b656e206f776e6560408201526c1c881bdc88185c1c1c9bdd9959609a1b606082015260800190565b634e487b7160e01b600052603260045260246000fd5b601f82111561058d57600081815260208120601f850160051c81016020861015611c795750805b601f850160051c820191505b81811015611c9857828155600101611c85565b505050505050565b815167ffffffffffffffff811115611cba57611cba6119db565b611cce81611cc88454611bbb565b84611c52565b602080601f831160018114611d035760008415611ceb5750858301515b600019600386901b1c1916600185901b178555611c98565b600085815260208120601f198616915b82811015611d3257888601518255948401946001909101908401611d13565b5085821015611d505787850151600019600388901b60f8161c191681555b5050505050600190811b01905550565b600084516020611d738285838a016118ad565b855191840191611d868184848a016118ad565b8554920191600090611d9781611bbb565b60018281168015611daf5760018114611dc457611df0565b60ff1984168752821515830287019450611df0565b896000528560002060005b84811015611de857815489820152908301908701611dcf565b505082870194505b50929a9950505050505050505050565b60208082526025908201527f4552433732313a207472616e736665722066726f6d20696e636f72726563742060408201526437bbb732b960d91b606082015260800190565b60208082526032908201527f4552433732313a207472616e7366657220746f206e6f6e20455243373231526560408201527131b2b4bb32b91034b6b83632b6b2b73a32b960711b606082015260800190565b6001600160a01b0385811682528416602082015260408101839052608060608201819052600090611eca908301846118d1565b9695505050505050565b600060208284031215611ee657600080fd5b8151610a4d8161187a565b634e487b7160e01b600052601160045260246000fd5b818103818111156103b9576103b9611ef1565b808201808211156103b9576103b9611ef1565b634e487b7160e01b600052603160045260246000fdfea164736f6c6343000811000a436172626f6e204175746f6d617465642054726164696e67205374726174656779",
  "devdoc": {
    "events": {
      "BaseExtensionUpdated(string)": {
        "details": "triggered when updating the baseExtension"
      },
      "BaseURIUpdated(string)": {
        "details": "triggered when updating the baseURI"
      },
      "CarbonControllerUpdated(address)": {
        "details": "triggered when updating the address of the carbonController contract"
      },
      "UseGlobalURIUpdated(bool)": {
        "details": "triggered when updating useGlobalURI"
      }
    },
    "kind": "dev",
    "methods": {
      "approve(address,uint256)": {
        "details": "See {IERC721-approve}."
      },
      "balanceOf(address)": {
        "details": "See {IERC721-balanceOf}."
      },
      "burn(uint256)": {
        "details": "destorys the voucher token for the given strategyId requirements: - the caller must be the carbonController contract"
      },
      "getApproved(uint256)": {
        "details": "See {IERC721-getApproved}."
      },
      "isApprovedForAll(address,address)": {
        "details": "See {IERC721-isApprovedForAll}."
      },
      "mint(address,uint256)": {
        "details": "creatds a new voucher token for the given strategyId, transfers it to the provider requirements: - the caller must be the carbonController contract"
      },
      "name()": {
        "details": "See {IERC721Metadata-name}."
      },
      "owner()": {
        "details": "Returns the address of the current owner."
      },
      "ownerOf(uint256)": {
        "details": "See {IERC721-ownerOf}."
      },
      "renounceOwnership()": {
        "details": "Leaves the contract without owner. It will not be possible to call `onlyOwner` functions anymore. Can only be called by the current owner. NOTE: Renouncing ownership will leave the contract without an owner, thereby removing any functionality that is only available to the owner."
      },
      "safeTransferFrom(address,address,uint256)": {
        "details": "See {IERC721-safeTransferFrom}."
      },
      "safeTransferFrom(address,address,uint256,bytes)": {
        "details": "See {IERC721-safeTransferFrom}."
      },
      "setApprovalForAll(address,bool)": {
        "details": "See {IERC721-setApprovalForAll}."
      },
      "setBaseExtension(string)": {
        "details": "sets the base extension requirements: - the caller must be the owner of this contract"
      },
      "setBaseURI(string)": {
        "details": "sets the base URI requirements: - the caller must be the owner of this contract"
      },
      "setCarbonController(address)": {
        "details": "stores the carbonController address requirements: - the caller must be the owner of this contract"
      },
      "supportsInterface(bytes4)": {
        "details": "See {IERC165-supportsInterface}."
      },
      "symbol()": {
        "details": "See {IERC721Metadata-symbol}."
      },
      "tokenByIndex(uint256)": {
        "details": "See {IERC721Enumerable-tokenByIndex}."
      },
      "tokenOfOwnerByIndex(address,uint256)": {
        "details": "See {IERC721Enumerable-tokenOfOwnerByIndex}."
      },
      "tokenURI(uint256)": {
        "details": "depending on the useGlobalURI flag, returns a unique URI point to a json representing the voucher, or a URI of a global json used for all tokens"
      },
      "totalSupply()": {
        "details": "See {IERC721Enumerable-totalSupply}."
      },
      "transferFrom(address,address,uint256)": {
        "details": "See {IERC721-transferFrom}."
      },
      "transferOwnership(address)": {
        "details": "Transfers ownership of the contract to a new account (`newOwner`). Can only be called by the current owner."
      },
      "useGlobalURI(bool)": {
        "details": "sets the useGlobalURI flag requirements: - the caller must be the owner of this contract"
      }
    },
    "version": 1
  },
  "userdoc": {
    "kind": "user",
    "methods": {},
    "version": 1
  },
  "storageLayout": {
    "storage": [
      {
        "astId": 5743,
        "contract": "contracts/voucher/Voucher.sol:Voucher",
        "label": "_name",
        "offset": 0,
        "slot": "0",
        "type": "t_string_storage"
      },
      {
        "astId": 5745,
        "contract": "contracts/voucher/Voucher.sol:Voucher",
        "label": "_symbol",
        "offset": 0,
        "slot": "1",
        "type": "t_string_storage"
      },
      {
        "astId": 5749,
        "contract": "contracts/voucher/Voucher.sol:Voucher",
        "label": "_owners",
        "offset": 0,
        "slot": "2",
        "type": "t_mapping(t_uint256,t_address)"
      },
      {
        "astId": 5753,
        "contract": "contracts/voucher/Voucher.sol:Voucher",
        "label": "_balances",
        "offset": 0,
        "slot": "3",
        "type": "t_mapping(t_address,t_uint256)"
      },
      {
        "astId": 5757,
        "contract": "contracts/voucher/Voucher.sol:Voucher",
        "label": "_tokenApprovals",
        "offset": 0,
        "slot": "4",
        "type": "t_mapping(t_uint256,t_address)"
      },
      {
        "astId": 5763,
        "contract": "contracts/voucher/Voucher.sol:Voucher",
        "label": "_operatorApprovals",
        "offset": 0,
        "slot": "5",
        "type": "t_mapping(t_address,t_mapping(t_address,t_bool))"
      },
      {
        "astId": 6811,
        "contract": "contracts/voucher/Voucher.sol:Voucher",
        "label": "_ownedTokens",
        "offset": 0,
        "slot": "6",
        "type": "t_mapping(t_address,t_mapping(t_uint256,t_uint256))"
      },
      {
        "astId": 6815,
        "contract": "contracts/voucher/Voucher.sol:Voucher",
        "label": "_ownedTokensIndex",
        "offset": 0,
        "slot": "7",
        "type": "t_mapping(t_uint256,t_uint256)"
      },
      {
        "astId": 6818,
        "contract": "contracts/voucher/Voucher.sol:Voucher",
        "label": "_allTokens",
        "offset": 0,
        "slot": "8",
        "type": "t_array(t_uint256)dyn_storage"
      },
      {
        "astId": 6822,
        "contract": "contracts/voucher/Voucher.sol:Voucher",
        "label": "_allTokensIndex",
        "offset": 0,
        "slot": "9",
        "type": "t_mapping(t_uint256,t_uint256)"
      },
      {
        "astId": 4605,
        "contract": "contracts/voucher/Voucher.sol:Voucher",
        "label": "_owner",
        "offset": 0,
        "slot": "10",
        "type": "t_address"
      },
      {
        "astId": 14129,
        "contract": "contracts/voucher/Voucher.sol:Voucher",
        "label": "_carbonController",
        "offset": 0,
        "slot": "11",
        "type": "t_contract(CarbonController)9674"
      },
      {
        "astId": 14131,
        "contract": "contracts/voucher/Voucher.sol:Voucher",
        "label": "_useGlobalURI",
        "offset": 20,
        "slot": "11",
        "type": "t_bool"
      },
      {
        "astId": 14133,
        "contract": "contracts/voucher/Voucher.sol:Voucher",
        "label": "__baseURI",
        "offset": 0,
        "slot": "12",
        "type": "t_string_storage"
      },
      {
        "astId": 14135,
        "contract": "contracts/voucher/Voucher.sol:Voucher",
        "label": "_baseExtension",
        "offset": 0,
        "slot": "13",
        "type": "t_string_storage"
      }
    ],
    "types": {
      "t_address": {
        "encoding": "inplace",
        "label": "address",
        "numberOfBytes": "20"
      },
      "t_array(t_uint256)dyn_storage": {
        "base": "t_uint256",
        "encoding": "dynamic_array",
        "label": "uint256[]",
        "numberOfBytes": "32"
      },
      "t_bool": {
        "encoding": "inplace",
        "label": "bool",
        "numberOfBytes": "1"
      },
      "t_contract(CarbonController)9674": {
        "encoding": "inplace",
        "label": "contract CarbonController",
        "numberOfBytes": "20"
      },
      "t_mapping(t_address,t_bool)": {
        "encoding": "mapping",
        "key": "t_address",
        "label": "mapping(address => bool)",
        "numberOfBytes": "32",
        "value": "t_bool"
      },
      "t_mapping(t_address,t_mapping(t_address,t_bool))": {
        "encoding": "mapping",
        "key": "t_address",
        "label": "mapping(address => mapping(address => bool))",
        "numberOfBytes": "32",
        "value": "t_mapping(t_address,t_bool)"
      },
      "t_mapping(t_address,t_mapping(t_uint256,t_uint256))": {
        "encoding": "mapping",
        "key": "t_address",
        "label": "mapping(address => mapping(uint256 => uint256))",
        "numberOfBytes": "32",
        "value": "t_mapping(t_uint256,t_uint256)"
      },
      "t_mapping(t_address,t_uint256)": {
        "encoding": "mapping",
        "key": "t_address",
        "label": "mapping(address => uint256)",
        "numberOfBytes": "32",
        "value": "t_uint256"
      },
      "t_mapping(t_uint256,t_address)": {
        "encoding": "mapping",
        "key": "t_uint256",
        "label": "mapping(uint256 => address)",
        "numberOfBytes": "32",
        "value": "t_address"
      },
      "t_mapping(t_uint256,t_uint256)": {
        "encoding": "mapping",
        "key": "t_uint256",
        "label": "mapping(uint256 => uint256)",
        "numberOfBytes": "32",
        "value": "t_uint256"
      },
      "t_string_storage": {
        "encoding": "bytes",
        "label": "string",
        "numberOfBytes": "32"
      },
      "t_uint256": {
        "encoding": "inplace",
        "label": "uint256",
        "numberOfBytes": "32"
      }
    }
  }
}